:100000000C946C030C9494030C9494030C9494033C
:100010000C9494030C9494030C9494030C94940304
:100020000C9494030C9494030C9476060C94E506BB
:100030000C9494030C9494030C9494030C949403E4
:100040000C9494030C9494030C9494030C949403D4
:100050000C9494030C9494030C9494030C9417093B
:100060000C9494030C9494030C9494030C949403B4
:100070000C9494030C9494030C9494030C949403A4
:100080000C9494030C9494030C9494030C94940394
:100090000C9494030C9494030C9494030C94940384
:1000A0000C9494030C9494030C94940300000000AB
:1000B000003E5B4F5B3E3E6B4F6B3E1C3E7C3E1CEE
:1000C000183C7E3C181C577D571C1C5E7F5E1C0034
:1000D000183C1800FFE7C3E7FF0018241800FFE7EB
:1000E000DBE7FF30483A060E2629792926407F05AE
:1000F0000507407F05253F5A3CE73C5A7F3E1C1CC4
:1001000008081C1C3E7F14227F22145F5F005F5F83
:1001100006097F017F006689956A6060606060946F
:10012000A2FFA29408047E040810207E2010080874
:100130002A1C08081C2A08081E101010100C1E0C7F
:100140001E0C30383E3830060E3E0E060000000011
:100150000000005F00000007000700147F147F14F8
:10016000242A7F2A1223130864623649562050003D
:1001700008070300001C2241000041221C002A1C29
:100180007F1C2A08083E0808008070300008080814
:100190000808000060600020100804023E51494534
:1001A0003E00427F400072494949462141494D3352
:1001B0001814127F1027454545393C4A49493141B9
:1001C000211109073649494936464949291E000087
:1001D00014000000403400000008142241141414DC
:1001E0001414004122140802015909063E415D59C8
:1001F0004E7C1211127C7F494949363E41414122D1
:100200007F4141413E7F494949417F090909013EFA
:10021000414151737F0808087F00417F4100204021
:10022000413F017F081422417F404040407F021C33
:10023000027F7F0408107F3E4141413E7F0909094A
:10024000063E4151215E7F09192946264949493216
:1002500003017F01033F4040403F1F2040201F3FDC
:100260004038403F63140814630304780403615961
:10027000494D43007F4141410204081020004141A3
:10028000417F04020102044040404040000307084F
:100290000020545478407F2844443838444444284B
:1002A000384444287F385454541800087E090218F2
:1002B000A4A49C787F0804047800447D400020407A
:1002C000403D007F1028440000417F40007C0478BE
:1002D00004787C080404783844444438FC18242406
:1002E0001818242418FC7C08040408485454542486
:1002F00004043F44243C4040207C1C2040201C3C03
:100300004030403C44281028444C9090907C4464F9
:10031000544C44000836410000007700000041368C
:10032000080002010204023C2623263C1EA1A16112
:10033000123A4040207A3854545559215555794144
:100340002154547841215554784020545579400C1B
:100350001E527212395555555939545454593955FC
:100360005454580000457C410002457D420001453F
:100370007C40F0292429F0F0282528F07C545545AC
:10038000002054547C547C0A097F4932494949323F
:100390003248484832324A4848303A4141217A3A54
:1003A00042402078009DA0A07D39444444393D401E
:1003B00040403D3C24FF2424487E4943662B2FFCCB
:1003C0002F2BFF0929F620C0887E09032054547979
:1003D000410000447D413048484A32384040227A4A
:1003E000007A0A0A727D0D19317D2629292F2826C7
:1003F0002929292630484D402038080808080808CF
:100400000808382F10C8ACBA2F102834FA00007B27
:10041000000008142A142222142A1408950022002D
:1004200095AA005500AAAA55AA55AA000000FF00E7
:10043000101010FF00141414FF001010FF00FF1024
:1004400010F010F0141414FC001414F700FF000056
:10045000FF00FF1414F404FC141417101F10101FD5
:10046000101F1414141F00101010F0000000001FC3
:10047000101010101F10101010F010000000FF10CE
:100480001010101010101010FF10000000FF1400CA
:1004900000FF00FF00001F10170000FC04F41414FC
:1004A0001710171414F404F40000FF00F7141414C8
:1004B00014141414F700F7141414171410101F1048
:1004C0001F141414F4141010F010F000001F101F6B
:1004D0000000001F14000000FC140000F010F010D9
:1004E00010FF10FF141414FF141010101F00000050
:1004F00000F010FFFFFFFFFFF0F0F0F0F0FFFFFF54
:100500000000000000FFFF0F0F0F0F0F38444438AA
:10051000447C2A2A3E147E02020606027E027E02E5
:1005200063554941633844443C04407E201E200604
:10053000027E020299A5E7A5991C2A492A1C4C7241
:1005400001724C304A4D4D303048784830BC625AC8
:10055000463D3E494949007E0101017E2A2A2A2A58
:100560002A44445F444440514A444040444A514034
:100570000000FF0103E080FF000008086B6B0836F5
:1005800012362436060F090F060000181800000066
:100590001010003040FF0101001F01011E00191D55
:1005A0001712003C3C3C3C0000000000F0F89C8E20
:1005B0008783878E9CF8F00000FEFF03030303038C
:1005C000070EFCF80000FEFF0303030303070EFC05
:1005D000F80000FFFF00000000000000FFFF000027
:1005E000FEFF8383838383C7EE7C380000F8FC0E14
:1005F00007030303070EFCF800003F7FE0C0808084
:10060000C0E07F3FFFFF01010101010101FFFF0089
:1006100000FFFF0C0C0C0C1C3E77E3C100007FFFB9
:10062000C0C0C0C0C0E0703F1F00001F3F70E0C0EE
:10063000C0C0E0703F1F00007FFFC1C1C1C1C1E366
:10064000773E1C00001F3F70E0C0C0C0E0703F1F3D
:10065000000000000001FFFF01000000D5F08D1434
:10066000A1C881CFD9F1AF2000080B00020202001F
:100670000009040000010202000005240010010529
:100680002401010104240206052406000107058156
:100690000310004009040100020A000000070502DF
:1006A0000240000007058302400000040309041211
:1006B000010002EF020140412336800001010203E4
:1006C0000141726475696E6F204C4C430041726445
:1006D00075626F790000940911241FBECFEFDAE034
:1006E000DEBFCDBF11E0A0E0B1E0ECE8F7E102C071
:1006F00005900D92A434B107D9F725E0A4E4B1E048
:1007000001C01D92A13CB207E1F713E0CCE6D3E0B3
:1007100004C02197FE010E94BE0BCB36D107C9F75A
:100720000E94B1090C94C40B0C940000EDE6F1E0BA
:10073000A0E0B8E000800EBC8111012C1197A0FD53
:10074000FDCF0192B9F70DB40895FC0180916C01C1
:10075000882311F13FB7F89482E08093E90020915B
:10076000F200822F90E01816190614F481E090E050
:10077000882339F0289844E640936B014091F100BA
:100780004083222339F02091F200211103C02BE68F
:100790002093E8003FBF08958FEF9FEF08952FB794
:1007A000F89483E08093E9009091E800892F8072AB
:1007B00095FF04C09091F20080E4891B2FBF08953B
:1007C0008091630181110DC082E080935F0184E01C
:1007D00080936001109262011092610181E0809328
:1007E00063018FE591E00895CF93DF931F92CDB71A
:1007F000DEB76983DC01ED91FC910280F381E02D8D
:1008000041E050E0BE016F5F7F4F09950F90DF918F
:10081000CF91089583E08093E9008091F2008823CE
:1008200019F08AE38093E80008950E94CF0390E0D6
:100830000895CF93DF931F92CDB7DEB7FC01848577
:10084000958597FD08C02FEF3FEF358724870F90E0
:10085000DF91CF910895CE0101960E94A5030197E3
:1008600019F4898190E0F3CF8FEF9FEFF0CF0F93D2
:100870001F93CF93DF931F92CDB7DEB78C01FC019E
:100880008485958597FF0BC0CE0101960E94A50334
:10089000019771F4898190E0F80195878487F801C8
:1008A000848595850F90DF91CF911F910F910895C9
:1008B0008FEF9FEFF1CFFC018485958597FD0BC0ED
:1008C0009FB7F89482E08093E9008091F2009FBF87
:1008D00090E0019608959FB7F89482E08093E90034
:1008E0008091F2009FBF90E008954091590150918E
:1008F0005A01209157013091580142175307B4F41F
:100900009091E8009570E1F39091E80092FD19C094
:100910008093F1008091590190915A0101968F7353
:100920009927892B19F48EEF8093E8008091590163
:1009300090915A01019690935A018093590181E058
:10094000089580E00895DF92EF92FF920F931F9336
:10095000CF93DF93D82E8A01EB017B01E40EF51EC5
:10096000CE15DF0559F0D7FE12C0FE0184910E941A
:10097000750421968111F4CF0FEF1FEFC801DF91AD
:10098000CF911F910F91FF90EF90DF900895888194
:10099000EECF0F931F93CF93DF931F92CDB7DEB7A8
:1009A00082E0898342E450E069E676E080E80E94D4
:1009B000A3040E94E003DC0112960D911C91011525
:1009C000110589F0D801ED91FC910280F381E02DB1
:1009D000BE016F5F7F4FC801099597FD04C0F80104
:1009E00000851185ECCF89810F90DF91CF911F9108
:1009F0000F910895615030F02091F100FC012083A7
:100A00000196F8CF289884E680936B010895FC0145
:100A10000E949E05319728F068517C4F8F4F9F4F61
:100A2000F9CFAB01FC010E949E05641775078E0784
:100A30009F07C8F308958F929F92AF92BF92CF9273
:100A4000DF92EF92FF920F931F93CF93DF936C018E
:100A50007B018A0180910C01882309F45AC080919E
:100A60006C01882309F455C080915E0180FF05C0A8
:100A70008091E00082608093E000E801B12C8AEF71
:100A8000A82E93E0892E2AE3922E209711F4BB2002
:100A9000C9F10E94CF03811108C0AA94AA20C9F10C
:100AA00081E090E00E940705F0CF8C171D0611F041
:100AB0000CF08C2F9FB7F8948092E9002091E80009
:100AC00025FD02C09FBFE1CF282F30E0C21BD30B12
:100AD000F701815020F041914093F100FACFE20EEE
:100AE000F31EBB2021F09092E800B12CEBCF809157
:100AF000E80085FDE7CF9092E800BB24B3942097EF
:100B000009F3F3CF5D9884E680935D01101611061A
:100B10003CF081E090E0F6019383828310E000E0F6
:100B2000C801DF91CF911F910F91FF90EF90DF905F
:100B3000CF90BF90AF909F908F900895A3E5B1E0C4
:100B40002FB7F8947D918D919C9166B52FBFA89B8E
:100B500005C06F3F18F47F5F8F4F9F4F22E0660FF5
:100B6000771F881F991F2A95D1F70895AF92BF92DA
:100B7000CF92DF92EF92FF920F931F93CF93DF9369
:100B80006C017B018B01040F151FEB015E01AE1898
:100B9000BF08C017D10759F06991D601ED91FC91BA
:100BA0000190F081E02DC6010995892B79F7C501E7
:100BB000DF91CF911F910F91FF90EF90DF90CF9039
:100BC000BF90AF90089590E00C9407058FB1809589
:100BD000807F669B88601C9B846008956F927F92E3
:100BE0008F929F92AF92BF92CF92DF92EF92FF923D
:100BF0000F931F93CF93DF9300D01F92CDB7DEB733
:100C00006D3089F0A0904A01B0904B016A30F9F440
:100C100010924901109248019501285F3F4F30938F
:100C20004B0120934A0181E090E00F900F900F90CC
:100C3000DF91CF911F910F91FF90EF90DF90CF90B8
:100C4000BF90AF909F908F907F906F90089500918C
:100C500048011091490135E0639FF0011124E455EA
:100C6000FF4FA801712C80E1682E98E0D92EDA0C94
:100C700075E060E0771621F0CF0101966491FC01E8
:100C8000C50140385105D0F480349105B8F4A62F41
:100C9000A170CA2E9C0171E021FD74E020FD770F48
:100CA00022FD7295287F629ED0011124A40FA359C2
:100CB000BE4F0C90072AC0FE07260C92669501963F
:100CC000D812DFCF73944F5F5F4F86E07812D0CF9A
:100CD0000A5F1F4F1093490100934801A4CF80E0A1
:100CE0000C949603089590E080E008951F920F926F
:100CF0000FB60F9211248F939F938091E1009091F2
:100D0000E100937F9093E10083FF0FC01092E90010
:100D100091E09093EB001092EC0092E39093ED0041
:100D200010926C0198E09093F00082FF22C093E053
:100D30009093E9009091F200992319F09AE390932F
:100D4000E80090915D01992341F090915D019150EF
:100D500090935D01911101C05D9A90916B0199236F
:100D600041F090916B01915090936B01911101C0F2
:100D7000289A84FF18C08091E2008E7E8160809363
:100D8000E2008091E1008F7E8093E10080915E011E
:100D90008E7E806180935E019F918F910F900FBE38
:100DA0000F901F90189580FFF7CF8091E2008E7E04
:100DB00080618093E2008091E1008E7E8093E1006B
:100DC00080915E018E7E8160E5CF1F920F920FB6FB
:100DD0000F921124CF92DF92EF92FF920F931F9305
:100DE0002F933F934F935F936F937F938F939F9333
:100DF000AF93BF93EF93FF93CF93DF93CDB7DEB75E
:100E00006C97DEBFCDBF1092E9008091E80083FFB0
:100E100025C068E0CE0145960E94FA0482EF8093D7
:100E2000E8008D8987FF39C09091E80090FFFCCFE2
:100E3000982F907609F034C19E894F89588D2F895B
:100E4000F88C911131C0803861F580915C018093FC
:100E5000F1001092F1008EEF8093E8006C960FB6CF
:100E6000F894DEBF0FBECDBFDF91CF91FF91EF9120
:100E7000BF91AF919F918F917F916F915F914F91B2
:100E80003F912F911F910F91FF90EF90DF90CF90A6
:100E90000F900FBE0F901F9018959EEF9093E80053
:100EA000C7CF1092F100D5CF913059F48111D3CF33
:100EB0004130510581F680915C018D7F80935C010A
:100EC000CACF933049F48111C6CF4130510519F68C
:100ED00080915C018260F2CF953041F48091E8000E
:100EE00080FFFCCF20682093E300B5CF963009F057
:100EF000A9C00B8D1C8D22E01092E90010925A01BE
:100F000010925901F2122EC01092580110925701FE
:100F10000E94C9041F8299E09983FA8291E09E831E
:100F200090EA98879AEF99872091590130915A0158
:100F3000275F3F4F3C832B838D831092E9001092F3
:100F40005A0110925901109358010093570149E03A
:100F500050E0BE016F5F7F4F80E00E94A3040E94BB
:100F6000C90479CF10935801009357010E94E00300
:100F7000DC0112960D911C910115110509F451C166
:100F8000D801ED91FC910480F581E02DBE016B5EEE
:100F90007F4FC8010995009709F03EC1F80100850F
:100FA0001185EACFF3E0FF120EC08F89882309F480
:100FB00040C0823061F440E867E08DEC96E00E942A
:100FC0006109811148CF81E28093EB0047CF8130E6
:100FD00029F440E86BE081EC96E0F1CF833099F79B
:100FE0000E94E003DC011296ED90FC908E010F5FF1
:100FF0001F4F6801E114F10479F0D701ED91FC91E4
:101000000680F781E02DB801C7010995080F111D71
:10101000F701E084F184EECFD8011C92F601019033
:101020000020E9F73197BF016C197D0940E0C60146
:10103000C6CF6BEA76E0FB01449150E080E80E9465
:10104000A30409CF973009F4BECF983021F481E092
:101050008093F10000CF993009F0FDCE837009F044
:10106000B2CFEEE0F1E081E031E096E3219122237E
:1010700071F08093E9003093EB00DF0111972C9120
:101080002093EC009093ED008F5F873079F78EE727
:101090008093EA001092EA008F8980936C01DBCE86
:1010A0008B8D9C8D1092E90010925A01109259017B
:1010B0009093580180935701898D811192C08E8938
:1010C0009D89913A49F4813209F07DCF47E050E0A3
:1010D00065E071E080E0B3CF913209F074CF8332E4
:1010E00069F48F89988DB0E0A0E08093010190931E
:1010F0000201A0930301B0930401ADCE803269F4E4
:101100008091E80082FFFCCF67E085E091E00E94DB
:10111000FA048BEF8093E8009ECE823209F09BCEDA
:101120008F8980930C01EEEFFFE7859194918B3FBF
:101130009C4D51F1E0E0F8E08091050190910601AD
:10114000A0910701B0910801803B9440A105B10531
:10115000F1F480910C0180FD1AC0EE3F8AE0F8079F
:1011600089F587E797E7918380838091600080937A
:101170005B0188E19BE00FB6F894A895809360002E
:101180000FBE9093600067CEEEEFFAE0D5CF80817E
:1011900091818737974709F05ECEA89580916000CE
:1011A00088618093600080915B0180936000EE3FD6
:1011B0002AE0F20789F08091FE0A9091FF0A91835C
:1011C000808349CE808191818737980751F290932F
:1011D000FF0A8093FE0AC5CF1092FF0A1092FE0A02
:1011E0003ACE0E94E003DC0112960D911C9101158C
:1011F000110509F4E8CED801ED91FC910190F08140
:10120000E02DBE016B5E7F4FC8010995811123CE91
:10121000F80100851185EBCF181619060CF41BCECA
:10122000D2CEF1E0FF12BECE6FEA76E004CF0F928D
:101230000FB68F939F93EF93FF9380914E018D5F35
:101240008D3708F08D5780934E01EFE4F1E08081F7
:101250008E4F808391819F4F918382818F4F8283B4
:1012600083818F4F8383E3E5F1E080818F5F80830B
:1012700081818F4F818382818F4F828383818F4FC2
:1012800083838FB18F6066991C9B88278F3681F48A
:1012900080914D01981B963068F0E0E0F8E087E718
:1012A0008083818388E180936000F0936000FFCFAA
:1012B00090934D01FF91EF919F918F910FBE0F90F1
:1012C0001895EF92FF920F931F93CF93DF93F82E11
:1012D000192FE62E042F81E0860F880F0E947504D7
:1012E00083E00E947504CF2DD12FEC0EFD2EF11C52
:1012F000CE15DF05B9F007FF13C0FE0184910E94EF
:101300007504182F80E00E947504812321968111B5
:10131000EFCFDF91CF911F910F91FF90EF90089544
:101320008881EDCF81E0F5CFEDE6F5E01382128202
:1013300088EE93E0A0E0B0E084839583A683B78332
:1013400088E191E0918380838FEF9FEF9587848779
:10135000EDEBF5E0138212828AE291E091838083C3
:101360000895789483E084BD83E085BD81E0809317
:101370006E00E1E8F0E083E08083E0E881E08083D4
:10138000E1E983E08083E0E981E08083E1EC87E0CC
:101390008083E3EC81E08083E0EC82E08083E2EC18
:1013A00081E08083EAE787E0808380688083109211
:1013B0006C0110925C0110925E018091D7008160F7
:1013C0008093D70080EA8093D80089B5806189BD79
:1013D00089B5826089BD09B400FEFDCF81E090E04F
:1013E0000E9407058091D8008F7C80618093D8008F
:1013F0008091E000807F8093E0008091E1008E7E0C
:101400008093E1008DE08093E200559A209A81EC70
:1014100080937C0081EF85B987EE84B984E38BB932
:1014200084EF8AB9769A6E9880EF81BB10BA80E516
:101430008CBD81E08DBD85E00E94E3055F9A85E06B
:101440000E94E3055C98ECE5F6E085918EBD000016
:101450000DB407FEFDCFE936C1F75C9A81E88093B1
:10146000640081E0809365000E946F060E94E6059B
:1014700087FF15C05C9885EA8EBD00000DB407FE9D
:10148000FDCF5C9A2E982F982D98809164008062F1
:101490008093640081E083BF889513BEFCCF0E94D7
:1014A000E60582FF37C02D980E94E60584788438CF
:1014B000A1F42D9A88EC0E94E3052F986FEF82E04B
:1014C00090E00E94AC0B84EF91E00E9407052F9AF8
:1014D0000E94E60584788438D9F30E94E605847179
:1014E0008431A1F42D9A88EC0E94E3052E9860E0E7
:1014F00082E090E00E94AC0B84EF91E00E9407052F
:101500002E9A0E94E60584718431D9F388EC0E94FA
:10151000E305C5CF2D9A82E090E00E94A40B8823BA
:10152000C1F13E9A3F9A81E090E00E94A40B182FEF
:10153000147081FF0AC011112E98C1EFDFEF0E94D5
:10154000E60586FF29C02E9A2F9A82E30E94E305C2
:101550000E94E6058111F9CF80E180930001D1E07E
:1015600084E4E82E81E0F82E9DE6C92E91E0D92E84
:1015700000E010E0BB24B394C0914601CC2309F4F1
:10158000A5C01092460101151105B1F30E9400009B
:10159000F3CF3E983F98C7CF112329F0C430D1052F
:1015A00011F42E9A2F9881E00E9496030C2F077059
:1015B000A02EAE0123E0559547952A95E1F7CA0183
:1015C0009695982F88279795879583599E4F70E019
:1015D00060E04E3F2FEF520769F130E020E0DB0181
:1015E000A455BA4F7C01E0E8EE0EF11CFD01E20FBC
:1015F000F31FE491F0E04F010A2C02C0880C991C03
:101600000A94E2F74F3F540739F06C01C20ED31E23
:10161000F601B488B828B48AAA2039F06701C20E4E
:10162000D31EF60104890929048B2F5F3F4F28350B
:101630003105E1F64F5F5F4F80589F4F685A7F4FEB
:10164000603B710531F60E946F068FE00E94E30552
:101650002196C931D10509F072CF112311F02F9ACB
:101660002D9880E991E00E9407052D9A81E090E095
:101670000E94A40B80FF69CF8AE090E00E94A40B37
:101680009FEF980F9E3F08F060CF22E330E0309349
:1016900049012093480128E330E030934B01209327
:1016A0004A01CAE0D0E0682F8DEB95E00E94EE057C
:1016B0002196CE010E94A40BC031D105A1F70E9452
:1016C0006F0688EE93E00E9407053FCF90914F018F
:1016D00080914701F92FF81B8F2F20910001F217FD
:1016E00040F48F5F821708F04ECFD3BF889513BEAA
:1016F0004ACFB092460190934701F70180819181D2
:101700000196808391830E94E60580934C01F60147
:10171000C111CFEF8FEFC193C193C193C19381509A
:10172000D0F710924B0110924A0110924901109289
:10173000480141E150E062E371E08DEB95E00E94E9
:10174000B6050E946F061FCFF999FECF92BD81BDED
:10175000F89A992780B50895262FF999FECF92BD62
:1017600081BDF89A019700B4021639F01FBA20BD66
:101770000FB6F894FA9AF99A0FBE0895EE0FFF1F6C
:0C1780000590F491E02D0994F894FFCF3F
:10178C0010FFFFFFFF00E100000000000000C1801F
:10179C008100000000000000F4031B0515040A047E
:1017AC005B041904370400000000EE05B60573064F
:1017BC007206496E736572742047616D65204865C9
:0417CC007265210021
:00000001FF
