:100000000C94B10B0C94D90B0C94D90B0C94D90B08
:100010000C94D90B0C94D90B0C94D90B0C94D90BD0
:100020000C94D90B0C94D90B0C942A180C94991895
:100030000C94D90B0C94D90B0C94D90B0C94D90BB0
:100040000C94D90B0C94D90B0C94D90B0C94D90BA0
:100050000C94D90B0C94D90B0C94D90B0C94CB1A8F
:100060000C94D90B0C94D90B0C94D90B0C94D90B80
:100070000C94D90B0C94D90B0C94D90B0C94D90B70
:100080000C94D90B0C94D90B0C94D90B0C94D90B60
:100090000C94D90B0C94D90B0C94D90B0C94D90B50
:1000A0000C94D90B0C94D90B0C94D90B000078004C
:1000B0000B00780016007800220078002D007800F0
:1000C00038007800440078004F0078005A0078002B
:1000D00065007500700072007B0076008600780075
:1000E000910074009C007200A7007700B2007700B6
:1000F000BD007300C9007300D4007700DF007700F3
:10010000EA007200F5007400000178000B0176002F
:1001100016017200210175002C0178003B01780066
:100120004A017800550177005F0174006A016F0091
:1001300075016A007F0167008A016600950167000A
:100140009F016A00AA016F00B5017400BF0177002A
:10015000CA017800D4017400DE016A00E8015E0083
:10016000F2015400FC01500008024B00120257003B
:100170001C02630026026F0030027B003A027D0001
:10018000440280004E02840058028500650285000A
:10019000720285007B0294008502A3008E02B100EA
:1001A0009A02B100A402A200AE029300B80283003A
:1001B000C4028300D0028300DB027600E8027600EE
:1001C000F5027600000369000D0369001A03690057
:1001D00025035C0032035C003F035C004A034F00D0
:1001E00057034F0064034F006F034F007A034F0023
:1001F00085034D00900346009C033C00A70330009C
:10020000B2032400BE031A00C9031400D403110072
:10021000DF030E00EA030B00F5030E0000041100DB
:100220000B040E0016040B0021040E002C04110018
:100230003804090044040100500413005B04250045
:1002400066043700720449007E044D008A0454009D
:1002500096045700A1045300AD044F00B8045500A4
:10026000C4045700CF045100DB045100E6045700DA
:10027000F2045500FD044F00090553001405570012
:10028000210557002E0557003905490044053B005C
:1002900050053E005B0545006705500073055A0098
:1002A0007E0561008A05640096056400A10564006E
:1002B000AD056400B9056400C4056400D0056400A0
:1002C000000078000B00780016007800220078000B
:1002D0002D00780038007800440078004F00780046
:1002E0005A00780065007500700072007A00750091
:1002F00085007800900075009B007200A5007500D5
:10030000B0007800BB007500C6007200D100750017
:10031000DB007800E6007500F1007200FC0075005B
:1003200006017800110175001C017200270175009B
:10033000320178003C0178004701780052017800D2
:100340005C0177006701740072016F007C016B0033
:1003500087016800920167009C016800A7016B009B
:10036000B2016F00BC017400C7017700D2017800B0
:10037000DC017400E7016B00F1015F00FC01560035
:100380000602520012024E001F025D002B026C009A
:1003900038027B0043027C004D028000580284003A
:1003A00062028500700285007E028500880293004B
:1003B0009202A1009B02AF00A802AF00B302A1000D
:1003C000BD029200C7028300D4028300E1028300D1
:1003D000EC027700F90277000703770012036B0045
:1003E0001F036B002D036B0038035E0045035E00A6
:1003F00053035E005E0352006B0352007803520009
:1004000084035200900352009C034F00A70349004D
:10041000B3033F00BF033400CA032900D6031F0003
:10042000E2031900ED031700F803140003041100A0
:100430000E04140019041700240414002F041100E2
:100440003A0414004504170051040F005D0408002D
:100450006904190075042A0080043B008C044C00D8
:1004600098044F00A5045600B1045900BC0456007E
:10047000C7045200D1045600DC045900E7045600BA
:10048000F1045200FC0456000705590011055600FE
:100490001C05520027055600310559003E0559003C
:1004A0004B05590057054C0062053F006E053F00A3
:1004B0007A053F0085053F0091053F009D053F00FF
:1004C000A8053F00000078000B00780016007800B7
:1004D000220078002D007800380078004400780071
:1004E0004F0078005A0078006500750070007300B6
:1004F0007B00750086007800910075009C007300F9
:10050000A7007500B2007800BE007500C900730036
:10051000D4007500DF007800EA007500F500730074
:10052000000175000B0178001601780022017800A7
:100530002D01780038017700430174004D017000EF
:1005400058016C00630169006D0168007801690061
:1005500083016C008D01700098017400A301770085
:10056000AD017800B8017500C3016C00CE016100D7
:10057000D9015800E4015500F0015000FC015E0073
:1005800008026C0014027A001F027C002A0280001C
:1005900035028400400286004A0286005502860029
:1005A0005F028600680293007202A0007C02AD0028
:1005B0008B02AD0095029F00A0029100AA02840068
:1005C000B8028400C6028400D1027800DE027800FE
:1005D000EC027800F7026C0005036C0013036C005A
:1005E0001E0360002C0360003A03600046036000B5
:1005F000530360005E035E006803590073035200FA
:100600007E03490089033F00930336009E032F00B9
:10061000A9032A00B4032800BF032500CA0323004E
:10062000D5032500E0032800EB032500F603230093
:10063000010425000C0428001804210024041A00D9
:1006400030042A003B043A0047044B0053045B008B
:100650005D045D0066046100700466007A04670052
:10066000850464008F0460009A046400A504670098
:10067000B0046400BB046000C6046400D0046700DA
:10068000DB046400E6046000F1046400FC0467001D
:10069000090567001605670022055B002D054E0061
:1006A00039054E0045054E0050054E005C054E00D4
:1006B00068054E0073054E00000078000B007800BE
:1006C00016007800220078002D00780038007800AD
:1006D000440078004F0078005A00780065007600EA
:1006E000710073007C00760087007800930076002C
:1006F0009E007300A9007600B5007800C000760067
:10070000CB007300D7007600E2007800ED007600A1
:10071000F9007300040176000F0178001C017800D5
:1007200028017800340178003F0177004901740006
:10073000540170005F016C0069016A007401690076
:100740007F016A0089016C00940170009F017400B0
:10075000A9017700B4017800BF017500CB016D00DD
:10076000D6016300E1015A00ED015700F901530081
:10077000040260000F026D001B027A0026027C005A
:10078000320280003E028400490286005402860044
:100790005F0286006A028600740292007E029F0059
:1007A0008802AB009802AB00A002A100A80297004B
:1007B000B0028E00B8028400C7028400D502840013
:1007C000E0027800EF027800FD02780008036D0077
:1007D00016036D0025036D00300362003E036200C6
:1007E0004C0362005A0362006703620072036000F8
:1007F0007D035C008803550093034C009F03430076
:10080000AA033A00B5033300C0032F00CB032D0029
:10081000D6032B00E1032800EC032B00F7032D0087
:1008200002042B000D04280018042B0023042D00C3
:100830002F0426003B04200047042F0053043E00F1
:100840005F044E006B045D0075045F007F0463006D
:1008500089046700930469009E046600A90462008D
:10086000B4046600BF046900CA046600D5046200CF
:10087000E0046600EB046900F6046600010562000E
:100880000C0566001705690024056900310569003B
:100890003D05690048056900540569006005690067
:1008A0006B05690077056900000078000B0078008F
:1008B00016007800220078002D00780038007800BB
:1008C000440078004F0078005A00780065007600F8
:1008D000700073007B00750086007800910077003F
:1008E0009C007400A6007400B1007700BC00770083
:1008F000C7007400D2007400DD007700E8007800C3
:10090000F3007500FE007300090176001401780001
:10091000210178002E0178003B0178004501770025
:10092000500174005B01710065016D0070016B0086
:100930007B016A0085016B0090016D009B017100D5
:10094000A5017400B0017700BB017800C6017500F5
:10095000D2016E00DE016400EA015D00F6015A007A
:10096000020255000C02610017026E0022027A009A
:100970002E027C003A028000460284005202860069
:100980005E0286006A02860075028600800292007E
:100990008A029D009402A900A502A900AE02A0004F
:1009A000B6029700BE028D00C6028400D002840009
:1009B000DB028400E5028400F0027900FF02790086
:1009C0000E03790019036E0027036E0036036E00D4
:1009D00041036400500364005F0364006D0364001E
:1009E0007B0364008603620092035E009D03570050
:1009F000A9034F00B4034700C0033F00CB033800F6
:100A0000D7033400E2033200ED033000F8032D0079
:100A1000030430000E0432001904300024042D00B9
:100A20002F0430003A04320046042C005204260001
:100A30005E0434006B0443007704510083045F00BC
:100A40008D04610098046500A2046900AC046B0089
:100A5000B8046B00C4046B00CF046B00DB046B00B4
:100A6000E7046B00F2046B00000078000B007800D4
:100A700016007800220078002D00780038007800F9
:100A8000440078004F0078005A0078006500760036
:100A9000700074007B00750086007800910077007C
:100AA0009C007400A7007400B2007700BD007800BD
:100AB000C8007500D3007400DE007600E9007800FD
:100AC000F600780004017800120178001C0177001C
:100AD00027017500320171003C016E0047016B0077
:100AE00052016A005C016B0067016E0072017100C7
:100AF0007C01750087017700920178009C017600E7
:100B0000A6017100B0016A00BB016300C5015E006F
:100B1000CF015C00DB015700E5016300EF016E00CF
:100B2000F901790003027B000D027E0018028200A9
:100B3000220285002C0286003802860045028600CB
:100B4000510286005C02910066029C007002A700C0
:100B50008302A7008B029E00940296009C028D00E7
:100B6000A4028400AF028400BA028400C50284009B
:100B7000D0027A00E0027A00EF027A00FA027000F6
:100B8000090370001803700027037000360370001B
:100B900041036F004B036B00560366006103600066
:100BA0006B0359007603510081034B008B03460011
:100BB00096034200A1034100AC033F00B7033D0090
:100BC000C2033F00CD034100D8033F00E3033D00D3
:100BD000EE033F00F903410004044100100441000A
:100BE0001C04410027044100330441003F0441003C
:100BF000000078000B0078001600780022007800D2
:100C00002D00780038007800440078004F0078000C
:100C10005A00780065007600700074007C00750052
:100C200087007800920077009D007500A90075008C
:100C3000B4007700BF007800CA007500D6007400C9
:100C4000E1007600EC007800F700780002017800FF
:100C50000C01780017017800220177002D01750042
:100C60003701720042016E004D016C0057016B00AC
:100C700062016C006D016E007701720082017500E7
:100C80008D01770097017800A2017600AC01720017
:100C9000B7016B00C2016500CC016000D7015F00A5
:100CA000E3015A00EC016400F5016F00FF017900D7
:100CB00009027A0014027E001F02820029028500C8
:100CC00034028600410286004E0286005B028600E6
:100CD00063028E006B02960073029D007B02A500EA
:100CE0008F02A50098029D00A0029500A9028D0028
:100CF000B1028400BD028400C8028400D4028400D2
:100D0000DF027B00EF027B00FE027B000903710023
:100D10001903710029037100330371003E03710050
:100D200048037100540371005F0371006B0371008D
:100D300077037100820371008E0371000000780058
:100D40000B00780016007800220078002D00780053
:100D500038007800440078004F0078005A0078008E
:100D6000650077006F0075007A00750085007700D8
:100D70008F0078009A007600A5007400AF0076001E
:100D8000BA007800C5007700CF007500DA00750062
:100D9000E5007700EF007800FB007800060178009E
:100DA000120178001D0178002801770032017500DA
:100DB0003D01720048016F0052016D005D016C0041
:100DC00068016D0072016F007D017200880175007D
:100DD000920177009D017800A8017600B3017200AE
:100DE000BE016D00C9016700D4016300DE0161002E
:100DF000EA015C00F7016B000402790010027A003E
:100E00001B027E0026028200310285003C02870020
:100E10004A02870058028700660287006E028E0031
:100E2000760295007E029C008602A3009C02A3002D
:100E3000A4029B00AD029400B6028C00BE028500A5
:100E4000CA028500D7028500E3028500EE02850014
:100E5000FA02850006038500110385001D03850045
:100E600029038500000078000B0078001600780048
:100E7000220078002D0078003800780044007800C7
:100E80004F0078005A007800650077007100750007
:100E90007C00760087007800930078009E00760042
:100EA000A9007500B4007700C0007800CC0078007D
:100EB000D8007800E4007800F0007800FA007700AD
:100EC00005017500100173001A01700025016E0004
:100ED00030016D003A016E00450170005001730051
:100EE0005A01750065017700700178007B01770079
:100EF0008601730091016E009D016900A8016500E3
:100F0000B3016400BF015F00CB016C00D701780022
:100F1000E3017A00EE017D00FA01820006028500FD
:100F2000110287001C028700270287003202870017
:100F30003D02870049028700540287006002870053
:100F40006C02870077028700830287000000780028
:100F50000B00780016007800220078002D00780041
:100F600038007800440078004F0078005A0078007C
:100F700066007700710075007D00760088007800BB
:100F8000940078009F007600AB007500B6007700F3
:100F9000C2007800CE007800DB007800E80078001E
:100FA000F4007800FF007700090176001401730057
:100FB0001F01700029016F0034016E003F016F00B6
:100FC00049017000540173005F01760069017700E8
:100FD00074017800800178008B0178009701780017
:100FE000A3017800AE017800BA017800000000008B
:100FF00017000000000000000000001904130000AA
:1010000000000000000E11110E00050205040E0480
:101010001008000404040010001804030E110E123E
:101020001F1019151211150A07041F1715090E159F
:1010300009011D030A150A12150E000A000000001E
:10104000040A110A0A0A110A040115020000001E0E
:10105000051E1F150A0E11111F110E1F15111F0558
:10106000010E111D1F041F111F1108100F1F041B5B
:101070001F10101F061F170E1D0E110E1F05020E4A
:1010800019161F051A121509011F011F101F071835
:10109000071F0C1F1B041B031C0319151300000062
:1010A0000000000000000000000000000400040236
:1010B000030302040004FE04FD03FC02FC00FCFE2A
:1010C000FDFDFEFC00FC02FC03FD04FE0000000030
:1010D000003E5B4F5B3E3E6B4F6B3E1C3E7C3E1CBE
:1010E000183C7E3C181C577D571C1C5E7F5E1C0004
:1010F000183C1800FFE7C3E7FF0018241800FFE7BB
:10110000DBE7FF30483A060E2629792926407F057D
:101110000507407F05253F5A3CE73C5A7F3E1C1C93
:1011200008081C1C3E7F14227F22145F5F005F5F53
:1011300006097F017F006689956A6060606060943F
:10114000A2FFA29408047E040810207E2010080844
:101150002A1C08081C2A08081E101010100C1E0C4F
:101160001E0C30383E3830060E3E0E0600000000E1
:101170000000005F00000007000700147F147F14C8
:10118000242A7F2A1223130864623649562050000D
:1011900008070300001C2241000041221C002A1CF9
:1011A0007F1C2A08083E08080080703000080808E4
:1011B0000808000060600020100804023E51494504
:1011C0003E00427F400072494949462141494D3322
:1011D0001814127F1027454545393C4A4949314189
:1011E000211109073649494936464949291E000057
:1011F00014000000403400000008142241141414AC
:101200001414004122140802015909063E415D5997
:101210004E7C1211127C7F494949363E41414122A0
:101220007F4141413E7F494949417F090909013ECA
:10123000414151737F0808087F00417F41002040F1
:10124000413F017F081422417F404040407F021C03
:10125000027F7F0408107F3E4141413E7F0909091A
:10126000063E4151215E7F091929462649494932E6
:1012700003017F01033F4040403F1F2040201F3FAC
:101280004038403F63140814630304780403615931
:10129000494D43007F414141020408102000414173
:1012A000417F04020102044040404040000307081F
:1012B0000020545478407F2844443838444444281B
:1012C000384444287F385454541800087E090218C2
:1012D000A4A49C787F0804047800447D400020404A
:1012E000403D007F1028440000417F40007C04788E
:1012F00004787C080404783844444438FC182424D6
:101300001818242418FC7C08040408485454542455
:1013100004043F44243C4040207C1C2040201C3CD2
:101320004030403C44281028444C9090907C4464C9
:10133000544C44000836410000007700000041365C
:10134000080002010204023C2623263C1EA1A161E2
:10135000123A4040207A3854545559215555794114
:101360002154547841215554784020545579400CEB
:101370001E527212395555555939545454593955CC
:101380005454580000457C410002457D420001450F
:101390007C40F0292429F0F0282528F07C5455457C
:1013A000002054547C547C0A097F4932494949320F
:1013B0003248484832324A4848303A4141217A3A24
:1013C00042402078009DA0A07D39444444393D40EE
:1013D00040403D3C24FF2424487E4943662B2FFC9B
:1013E0002F2BFF0929F620C0887E09032054547949
:1013F000410000447D413048484A32384040227A1A
:10140000007A0A0A727D0D19317D2629292F282696
:101410002929292630484D4020380808080808089E
:101420000808382F10C8ACBA2F102834FA00007BF7
:10143000000008142A142222142A140895002200FD
:1014400095AA005500AAAA55AA55AA000000FF00B7
:10145000101010FF00141414FF001010FF00FF10F4
:1014600010F010F0141414FC001414F700FF000026
:10147000FF00FF1414F404FC141417101F10101FA5
:10148000101F1414141F00101010F0000000001F93
:10149000101010101F10101010F010000000FF109E
:1014A0001010101010101010FF10000000FF14009A
:1014B00000FF00FF00001F10170000FC04F41414CC
:1014C0001710171414F404F40000FF00F714141498
:1014D00014141414F700F7141414171410101F1018
:1014E0001F141414F4141010F010F000001F101F3B
:1014F0000000001F14000000FC140000F010F010A9
:1015000010FF10FF141414FF141010101F0000001F
:1015100000F010FFFFFFFFFFF0F0F0F0F0FFFFFF23
:101520000000000000FFFF0F0F0F0F0F384444387A
:10153000447C2A2A3E147E02020606027E027E02B5
:1015400063554941633844443C04407E201E2006D4
:10155000027E020299A5E7A5991C2A492A1C4C7211
:1015600001724C304A4D4D303048784830BC625A98
:10157000463D3E494949007E0101017E2A2A2A2A28
:101580002A44445F444440514A444040444A514004
:101590000000FF0103E080FF000008086B6B0836C5
:1015A00012362436060F090F060000181800000036
:1015B0001010003040FF0101001F01011E00191D25
:1015C0001712003C3C3C3C0000000000F0F89C8EF0
:1015D0008783878E9CF8F00000FEFF03030303035C
:1015E000070EFCF80000FEFF0303030303070EFCD5
:1015F000F80000FFFF00000000000000FFFF0000F7
:10160000FEFF8383838383C7EE7C380000F8FC0EE3
:1016100007030303070EFCF800003F7FE0C0808053
:10162000C0E07F3FFFFF01010101010101FFFF0059
:1016300000FFFF0C0C0C0C1C3E77E3C100007FFF89
:10164000C0C0C0C0C0E0703F1F00001F3F70E0C0BE
:10165000C0C0E0703F1F00007FFFC1C1C1C1C1E336
:10166000773E1C00001F3F70E0C0C0C0E0703F1F0D
:10167000000000000001FFFF01000000D5F08D1404
:10168000A1C881CFD9F1AF2000FF33330C0C333325
:101690000000000F000502010706080A070C060EED
:1016A000080309070D080F060600020003060106DD
:1016B00007020502040304040505060809090709D1
:1016C0000A080B0B025F5F5F5F5F5F5F5F5F5F5FDB
:1016D0005F5F5F004752415649545920444546498F
:1016E00045440046494E495348210043524153481E
:1016F000454400080B00020202000009040000013A
:101700000202000005240010010524010101042447
:1017100002060524060001070581031000400904A4
:101720000100020A00000007050202400000070550
:1017300083024000000403090412010002EF0201C9
:101740004041233680000101020301417264756942
:101750006E6F204C4C430041726475626F790000DB
:10176000481B11241FBECFEFDAE0DEBFCDBF12E071
:10177000A0E0B1E0E6EDF6E502C005900D92A63AD4
:10178000B107D9F727E0A6EAB2E001C01D92A5385B
:10179000B207E1F71BE0C1EBDBE004C02197FE01DB
:1017A0000E94632BC03BD107C9F70E94651B0C94B4
:1017B000692B0C9400004F925F926F927F928F92F0
:1017C0009F92AF92BF92CF92DF92EF92FF920F93D0
:1017D0001F93CF93DF93802E912CF401E60FF71F18
:1017E0001E161F060CF06EC0603471050CF06AC046
:1017F00030E0E62FE7707E2EF7E08F0E911CE3E0DD
:1018000095948794EA95E1F7F3E075956795FA95D5
:10181000E1F7062E000C770BDB01B695BA2FAA274D
:10182000B795A795A80FB91FA050BD4FEA0150E08A
:1018300040E0E0E8F0E07F01E81AF90A8A01060FCB
:10184000171F083011050CF03DC00F3F8FEF180730
:101850007CF190E080E05D01E0E8AE0EB11CFC019F
:10186000EC0FFD1FE491F0E02F01072C02C0440CA7
:10187000551C0A94E2F70F3F1007A9F16D01C80E3D
:10188000D91EF601608064286082772051F007300D
:10189000110539F06501C80ED91EF6016080652872
:1018A00060820196821793071CF4E816F906B9F6D0
:1018B0004F5F5F4FA058BF4FC20FD31F84169506CE
:1018C00009F0BCCFDF91CF911F910F91FF90EF9066
:1018D000DF90CF90BF90AF909F908F907F906F9050
:1018E0005F904F9008957110D5CFDBCF9C01480FCA
:1018F000592F511D4138510514F040E850E0421B6A
:10190000CB018770992791E001C0990F8A95EAF77A
:1019100077FF02C0695F7F4FFB0183E0F595E79594
:101920008A95E1F7F695FE2FEE27F795E795E20FFA
:10193000F31FE050FD4F415030F08191DF011197CE
:10194000892B8C93F8CF0895E0E0F3E0A0E0B8E0B5
:1019500000800EBC8111012C1197A0FDFDCF0192DA
:10196000B9F70DB40895FC018091FF02882311F1AD
:101970003FB7F89482E08093E9002091F200822F33
:1019800090E01816190614F481E090E0882339F0ED
:10199000289844E64093FE024091F10040832223C0
:1019A00039F02091F200211103C02BE62093E800CA
:1019B0003FBF08958FEF9FEF08952FB7F89483E00E
:1019C0008093E9009091E800892F807295FF04C010
:1019D0009091F20080E4891B2FBF08958091F60258
:1019E00081110DC082E08093F20284E08093F302C3
:1019F0001092F5021092F40281E08093F60282EFD9
:101A000092E00895CF93DF931F92CDB7DEB769833D
:101A1000DC01ED91FC910280F381E02D41E050E08A
:101A2000BE016F5F7F4F09950F90DF91CF910895B1
:101A300083E08093E9008091F200882319F08AE323
:101A40008093E80008950E94DD0C90E00895CF9304
:101A5000DF931F92CDB7DEB7FC018485958597FD96
:101A600008C02FEF3FEF358724870F90DF91CF918C
:101A70000895CE0101960E94B30C019719F4898153
:101A800090E0F3CF8FEF9FEFF0CF0F931F93CF93A3
:101A9000DF931F92CDB7DEB78C01FC01848595855D
:101AA00097FF0BC0CE0101960E94B30C019771F411
:101AB000898190E0F80195878487F8018485958570
:101AC0000F90DF91CF911F910F9108958FEF9FEFAE
:101AD000F1CFFC018485958597FD0BC09FB7F894E5
:101AE00082E08093E9008091F2009FBF90E0019630
:101AF00008959FB7F89482E08093E9008091F20006
:101B00009FBF90E008954091EC025091ED0220912A
:101B1000EA023091EB0242175307B4F49091E800C7
:101B20009570E1F39091E80092FD19C08093F10067
:101B30008091EC029091ED0201968F739927892B89
:101B400019F48EEF8093E8008091EC029091ED0201
:101B500001969093ED028093EC0281E0089580E07D
:101B60000895DF92EF92FF920F931F93CF93DF932D
:101B7000D82E8A01EB017B01E40EF51ECE15DF05A0
:101B800059F0D7FE12C0FE0184910E94830D219668
:101B90008111F4CF0FEF1FEFC801DF91CF911F919B
:101BA0000F91FF90EF90DF9008958881EECF0F9313
:101BB0001F93CF93DF931F92CDB7DEB782E0898367
:101BC00042E450E063EF76E180E80E94B10D0E94AC
:101BD000EE0CDC0112960D911C910115110589F096
:101BE000D801ED91FC910280F381E02DBE016F5F81
:101BF0007F4FC801099597FD04C0F8010085118544
:101C0000ECCF89810F90DF91CF911F910F910895B3
:101C1000615030F02091F100FC0120830196F8CF53
:101C2000289884E68093FE020895FC010E94AC0E81
:101C3000319728F068517C4F8F4F9F4FF9CFAB0100
:101C4000FC010E94AC0E641775078E079F07C8F34E
:101C500008958F929F92AF92BF92CF92DF92EF92B0
:101C6000FF920F931F93CF93DF936C017B018A0147
:101C700080910D01882309F45AC08091FF028823C6
:101C800009F455C08091F10280FF05C08091E00009
:101C900082608093E000E801B12C8AEFA82E93E0E7
:101CA000892E2AE3922E209711F4BB20C9F10E94BD
:101CB000DD0C811108C0AA94AA20C9F181E090E04E
:101CC0000E94150EF0CF8C171D0611F00CF08C2F12
:101CD0009FB7F8948092E9002091E80025FD02C0AA
:101CE0009FBFE1CF282F30E0C21BD30BF7018150FB
:101CF00020F041914093F100FACFE20EF31EBB2099
:101D000021F09092E800B12CEBCF8091E80085FDA6
:101D1000E7CF9092E800BB24B394209709F3F3CF68
:101D20005D9884E68093F002101611063CF081E085
:101D300090E0F6019383828310E000E0C801DF9118
:101D4000CF911F910F91FF90EF90DF90CF90BF90B8
:101D5000AF909F908F900895A6EEB2E02FB7F894C1
:101D60007D918D919C9166B52FBFA89B05C06F3F5B
:101D700018F47F5F8F4F9F4F22E0660F771F881FF9
:101D8000991F2A95D1F70895AF92BF92CF92DF9213
:101D9000EF92FF920F931F93CF93DF936C017B0120
:101DA0008B01040F151FEB015E01AE18BF08C017B1
:101DB000D10759F06991D601ED91FC910190F08124
:101DC000E02DC6010995892B79F7C501DF91CF91E7
:101DD0001F910F91FF90EF90DF90CF90BF90AF9049
:101DE000089590E00C94150E8FB18095807F669BCE
:101DF00088601C9B846008959091B402982329F414
:101E00009091B502982381E009F480E00895CF9382
:101E1000C82F0E94F40E982F9C2381E09C1380E031
:101E2000CF91089580E00C94A40C80389105B8F40B
:101E300060347105A0F490E121E061FD24E060FDD3
:101E4000220F62FD2295687F969FD0011124A80F72
:101E5000A050BD4F0C90022A40FF02260C9208951C
:101E60002F923F924F925F926F927F928F929F92AA
:101E7000AF92BF92CF92DF92EF92FF920F931F9398
:101E8000CF93DF93EC018B017A016901C61AD70A5F
:101E9000D7FE03C0D194C194D10847018C1A9D0A82
:101EA00097FE03C09194819491088C149D0454F47E
:101EB0009E2D8F2D7901292F382F9C2F8D2FE801F2
:101EC000092F182FEC16FD0654F4902F812F89014D
:101ED000292F382F9C2F8D2FE701E92EF82E17017F
:101EE0002C1A3D0A2901401A510A57FE03C0519489
:101EF00041945108310137FE03C08FEF681A780A08
:101F0000759467948FEF021713070CF481E0A82EE5
:101F1000880FBB08EC16FD06A4F041E0BE01C80125
:101F20008C149D0414F0B801CE010E94150F6418A2
:101F3000750877FE04C00A0D1B1D620C731C2196E8
:101F4000E9CFDF91CF911F910F91FF90EF90DF903C
:101F5000CF90BF90AF909F908F907F906F905F9049
:101F60004F903F902F9008952F923F924F925F9203
:101F70006F927F928F929F92AF92BF92CF92DF9299
:101F8000EF92FF920F931F93CF93DF9300D000D077
:101F9000CDB7DEB77C018B01242F30E03C832B834F
:101FA00081E090E05C01A21AB30A190131942194F6
:101FB0003108220C331CB901600F711F41E0C701C9
:101FC0000E94150FB8018B819C81681B790B41E041
:101FD000C7010E94150F41E0B8018B819C818E0DD5
:101FE0009F1D0E94150F41E0B801C7012B813C8164
:101FF000821B930B0E94150FD12CC12C81E090E025
:102000009A8389832B813C81C216D3060CF05DC074
:10201000B7FC09C0215031093C832B8332E0230EE9
:10202000311CA20CB31C8FEFC81AD80A29813A813F
:102030002E5F3F4F3A832983A20EB31E37016C0CEB
:102040007D1C41E08B809C80800E911EB401C301F9
:102050000E94150F27014C185D0841E0B401C20130
:102060000E94150F41E048018B819C81881A990AD2
:10207000B401C3010E94150F41E0B401C2010E94E6
:10208000150F4601800E911E41E0B4016B807C80EB
:102090006E0C7F1CC3010E94150F41E0B4012701A3
:1020A0002B813C81421A530AC2010E94150F48013C
:1020B0008C189D0841E0B401C3010E94150F41E056
:1020C000B401C2010E94150F9DCF0F900F900F9089
:1020D0000F90DF91CF911F910F91FF90EF90DF90C4
:1020E000CF90BF90AF909F908F907F906F905F90B8
:1020F0004F903F902F9008952F923F924F925F9272
:102100006F927F928F929F92AF92BF92CF92DF9207
:10211000EF92FF920F931F93CF93DF9300D000D0E5
:1021200000D01F92CDB7DEB76D30D9F030900101ED
:102130004090B2025090B302832D90E09F838E8333
:102140006A3051F51092B1021092B00223E0880F6C
:10215000991F2A95E1F7480E591E5092B3024092FA
:10216000B20281E090E027960FB6F894DEBF0FBE72
:10217000CDBFDF91CF911F910F91FF90EF90DF9036
:10218000CF90BF90AF909F908F907F906F905F9017
:102190004F903F902F900895A090B002B090B10260
:1021A00095E0699FB0011124FB01E453FF4E3F010C
:1021B0006501212CF5E02F1629F1C3010196F301E9
:1021C000F491F9833C01420128E02A8389818170DE
:1021D0008D8310E000E00315D0F4F801EC0DFD1D37
:1021E000FC83EB83F12CE12CE31470F4B4016E0D4D
:1021F0007F1D4D818B819C810E94150FFFEFEF1A8F
:10220000FF0AF2CF1982DFCF0F5F1F4FE4CF298182
:10221000269529838A8181508A83EE81FF818E0EE3
:102220009F1E8111D3CF2394CE0EDF1EF6E02F1216
:10223000C1CFC501329C800D911D11249093B10234
:102240008093B0028ECF0F931F93CF93DF938C01B7
:10225000D0E0C0E0F801EC0FFD1F6491662341F06F
:1022600081E897E00E947C10892B11F02196F2CF33
:10227000CE01DF91CF911F910F910895DF92EF92E0
:10228000FF920F931F93CF93DF937C01EB01D22E2C
:102290008B01040F111DC017D1073CF44D2DBE0159
:1022A000C7010E94150F2196F6CFDF91CF911F91A4
:1022B0000F91FF90EF90DF900895EF92FF920F93B0
:1022C0001F93CF93DF937C018B01C42FD22F0E94E9
:1022D000760CB8016D0F711D615071094C2FC7014B
:1022E0000E94760C21E04D2FB801C7010E943E11DB
:1022F000C7018C0F911D21E04D2FB8010197DF918F
:10230000CF911F910F91FF90EF900C943E11FB0124
:10231000EE0FFF1FEE0FFF1F3296E80FF91F85919A
:1023200094910895660F771F660F771FFC01E60FE3
:10233000F71F859194910895EF92FF920F931F9349
:10234000CF93DF938C0180912F07909130079C01F0
:10235000215031096217730718F0BC0162507109EE
:10236000EB01209769F0BE0180912D0790912E0717
:102370000E949211081719071CF42197F2CFE70168
:1023800080912F07909130070297C817D90770F4F2
:102390007E018FEFE81AF80AB70180912D0790911E
:1023A0002E070E949211081719074CF7CE01DF91F2
:1023B000CF911F910F91FF90EF9008958F929F9270
:1023C000AF92BF92CF92DF92EF92FF92CF93DF93C3
:1023D000EC018090160190901701A0901801B09028
:1023E000190180912D0790912E07FC01C590D49082
:1023F0000D2C000CEE08FF08FE2CED2CDC2CCC2460
:10240000C80CD91CEA1CFB1C60912F077091300787
:10241000615071090E949211092E000CAA0BBB0B8E
:10242000BA2FA92F982F882788199909AA09BB09BB
:10243000488159816A817B814C155D056E057F0558
:1024400044F4C882D982EA82FB82C886D986EA86A9
:10245000FB86488159816A817B8184179507A6078D
:10246000B70744F488839983AA83BB8388879987B5
:10247000AA87BB87DF91CF91FF90EF90DF90CF903D
:10248000BF90AF909F908F900895EF92FF920F931F
:102490001F93CF938C017B01C42F40911601509163
:1024A00017016091180170911901452F562F672F60
:1024B000772767FD7A95B701C8010E94B40F4C2FAA
:1024C00050E0440F551FFA01E455FF4E84914355E7
:1024D0005F4EFA01449147FD4F5F45959701240FE8
:1024E000311D47FD3A95E82F87FDEF5FE595A8017F
:1024F0004E0F511DE7FD5A95B701C8010E94300FDC
:1025000041E0B701C801CF911F910F91FF90EF906B
:102510000C94150F0F931F93CF93DF9300D000D02F
:1025200000D0CDB7DEB79C01CB01E0E00AE010E0BF
:1025300041E04E0F61E070E06C0F7D1F6E0F711D6A
:10254000FB01B8010E943B2B805D8083CB01E42F0F
:10255000009771F7D901542F552359F0515081E05C
:1025600090E08C0F9D1F850F911DFC0180818D9344
:10257000F3CFC901840F911D26960FB6F894DEBFE4
:102580000FBECDBFDF91CF911F910F910895CF93D3
:10259000DF939C01CB016CE370E00E943B2BEC01CC
:1025A000C9010E948A12FC018EE28083CE0166E09E
:1025B00070E00E943B2B605D6183CF010296DF914A
:1025C000CF9108953F924F925F926F927F928F9238
:1025D0009F92AF92BF92CF92DF92EF92FF920F93B2
:1025E0001F93CF93DF93EC014B015A0183E0382E08
:1025F000F50181915F01882309F43FC09FE9980F9D
:102600009A3108F4805290EE980F903408F080E2EE
:102610008052839DC00111249C012451304F390107
:102620002E0133E0430E511C8E016C1A7D0AF3011A
:10263000E00FF11FE491F12CE12CCE2ED12CC6013C
:102640000E2C02C0959587950A94E2F780FF07C08B
:1026500041E0B4016E0D7F1DC8010E94150F8FEF80
:10266000E81AF80AE5E0EE16F10449F70F5F1F4F8C
:1026700004151505E1F62496BBCFDF91CF911F918C
:102680000F91FF90EF90DF90CF90BF90AF909F9011
:102690008F907F906F905F904F903F900895DC01F6
:1026A000AB01262FFB019E2F921B81918111FBCF45
:1026B000992319F0990F990F915020E830E0291BC8
:1026C000310937FF02C02F5F3F4FBD01C90195950A
:1026D00087950C94E2124091000750910107609198
:1026E000020770910307452F562F672F772767FD45
:1026F0007A954852510957FF02C050E040E050938C
:10270000AF024093AE024091D6025091D7029A0197
:10271000205131096091D8027091D902FB01FF97D5
:102720002E173F07D4F09A01260F371F35952795AE
:102730002752310981110CC08091AC029091AD02F9
:10274000281B390B3595279535952795280F391F67
:102750003093AD022093AC0208954091040750914C
:1027600005076091060770910707452F562F672FC1
:10277000772767FD7A954752510942175307D4F2DC
:102780009F014E175F07B4F69A01D4CFCF93DF9322
:10279000CDB7DEB72C970FB6F894DEBF0FBECDBF16
:1027A0008150893080F4E82FF0E0E652FC4E8CE056
:1027B0000C94632B0E141114141417141A141D14F2
:1027C0002014231426148CE0E3E5F1E0DE011196D9
:1027D00001900D928A95E1F78CE0FE013196AEEC06
:1027E000B2E001900D928A95E1F78091CE0290912E
:1027F000CF0290932E0780932D078091D002909165
:10280000D1029093300780932F072C960FB6F8943F
:10281000DEBF0FBECDBFDF91CF910895EFE5F1E0B0
:10282000D5CFEBE6F1E0D2CFE7E7F1E0CFCFE3E8B9
:10283000F1E0CCCFEFE8F1E0C9CFEBE9F1E0C6CFB2
:10284000E7EAF1E0C3CFE3EBF1E0C0CFEFEBF1E07B
:10285000BDCF8091CD020E94C6138091D402909189
:10286000D502092E000CAA0BBB0BBA2FA92F982F4B
:102870008827E0E0F7E040E054E160E070E040836A
:1028800051836283738384839583A683B783408750
:1028900051876287738784879587A687B78740911A
:1028A0001A0150911B0160911C0170911D015C5E29
:1028B0006F4F7F4F408B518B628B738B848B958BCB
:1028C000A68BB78B408F518F628F738F848F958FBC
:1028D000A68FB78F13A212A211A210A214A215A242
:1028E00016A210A617A212A611A614A613A610923D
:1028F000DB021092DA021092AB021092AA0210923E
:10290000B60281E00E946B1381E08093DD0208959E
:10291000CF92DF92EF92FF920F931F938B019C0156
:1029200080E090E0A0E0B0E4081719072A073B0711
:1029300040F442E0B695A795979587954A95D1F7CB
:10294000F3CF40E050E0BA010097A105B105F9F0DE
:102950006A017B01C80ED91EEA1EFB1E769567959B
:10296000579547950C151D052E053F0540F00C1990
:102970001D092E093F09480F591F6A1F7B1FE2E0FE
:10298000B695A79597958795EA95D1F7DDCFCB01B9
:10299000BA011F910F91FF90EF90DF90CF900895B3
:1029A0002F923F924F925F926F927F928F929F925F
:1029B000AF92BF92CF92DF92EF92FF920F931F934D
:1029C000CF93DF93CDB7DEB76F970FB6F894DEBF26
:1029D0000FBECDBF1C017A8369835F8B4E8B398F0D
:1029E000288FDB016D917C91FC0180819181A28116
:1029F000B381892F9A2FAB2FBB27A7FDBA950E94D1
:102A00009C11A981BA818D939C93EE89FF891082D4
:102A100011821282138240E05FEF6FEF7FEFA88D8B
:102A2000B98D4D935D936D937C9313978C01823098
:102A3000910510F402E010E002501109FC013296F9
:102A4000FF8FEE8F80912F07909130079C012150CE
:102A50003109E217F30720F0215031093F8F2E8F03
:102A60001D8A4E8C5F8C4016510608F4C8C1B8010F
:102A700080912D0790912E070E949211092E000C33
:102A8000AA0BBB0B6624782E892E9A2E69827A8235
:102A90008B829C82B80180912D0790912E070E9415
:102AA00087117C010F5F1F4FB80180912D07909116
:102AB0002E070E9492116C01B80180912D07909110
:102AC0002E070E948711D1018D909D90AD90BC90F2
:102AD00013978D829E82AF82B886409016015090E7
:102AE0001701609018017090190149865A866B860B
:102AF0007C86B501A401440D551D661D771D6980B6
:102B00007A808B809C8046155705680579050CF402
:102B1000A8CFA601DD0C660B770B762F652F542FFF
:102B200044278D809E80AF80B88449845A846B840A
:102B30007C8484189508A608B708481559056A05C5
:102B40007B050CF48ECF6701FF0CEE08FF08FE2C0E
:102B5000ED2CDC2CCC2414966D907D908D909C9067
:102B60001797698A7A8A8B8A9C8A2A013B01898015
:102B70009A80AB80BC80481859086A087B084D864B
:102B80005E866F86788A092E000CAA0BBB0B882400
:102B9000982EA92EBA2E8C189D08AE08BF08A30146
:102BA0009201C301B2010E942B2B2B013C01A50114
:102BB0009401C501B4010E942B2B460E571E681EBE
:102BC000791E452C562C672C772467FC7A941414B4
:102BD0001504160417040CF069C02D813E814F8145
:102BE000588589819A81AB81BC81281B390B4A0B9E
:102BF0005B0B6D857E858F8598890E942B2B6A8F54
:102C00007B8F8C8F9D8F29893A894B895C892C1900
:102C10003D094E095F09C501B4010E942B2B2A8D85
:102C20003B8D4C8D5D8D620F731F841F951FA3011B
:102C300092010E94C82A29013A0131E04316530645
:102C40006104710424F0412C512C3201539477FE1D
:102C500003C0412C512C3201A30192016D857E8568
:102C60008F8598890E942B2B672F782F892F992782
:102C700087FD9A9529813A814B815C81260F371F08
:102C8000481F591F29833A834B835C83A301920118
:102C9000C501B4010E942B2B672F782F892F99270C
:102CA00087FD9A95C60ED71EE81EF91E8D809E8060
:102CB000AF80B88449805A806B807C8084189508E6
:102CC000A608B70849885A886B887C884C185D0824
:102CD0006E087F08A5019401C501B4010E942B2B49
:102CE0006B017C01A3019201C301B2010E942B2B55
:102CF0006C0D7D1D8E1D9F1D0E9488146B017C0133
:102D000029853A854B855C85C216D306E406F5060F
:102D10000CF0A7CE34E0C316D104E104F10464F44E
:102D2000C12CD12C7601D394412C55245A94652C76
:102D3000752C812C912C54019A2D892D782D662784
:102D4000A70196010E94C82A49015A01962D852D96
:102D5000742D6627A70196010E94C82A29013A010D
:102D600089859A85AB85BC858C199D09AE09BF09FB
:102D70006C017D01A5019401CD01B6010E942B2BB0
:102D8000672F782F892F992787FD9A952D813E816E
:102D90004F815885620F731F841F951FD1016D935A
:102DA0007D938D939C931397A3019201C701B60164
:102DB0000E942B2B672F782F892F992787FD9A95B3
:102DC00029893A894B895C89620F731F841F951F7B
:102DD000D10114966D937D938D939C931797EE89F3
:102DE000FF8980829182A282B382A88DB98D4D9293
:102DF0005D926D927C921397B1E0BD8B32CE8D893E
:102E00006F960FB6F894DEBF0FBECDBFDF91CF91A6
:102E10001F910F91FF90EF90DF90CF90BF90AF90F8
:102E20009F908F907F906F905F904F903F902F90EA
:102E300008954F925F926F927F928F929F92AF927E
:102E4000BF92CF92DF92EF92FF920F931F93CF9397
:102E5000DF938C01EB018090100790901107A090F8
:102E60001207B09013078091000790910107A0917D
:102E70000207B0910307881A990AAA0ABB0AC090F0
:102E80001407D0901507E0901607F090170780916F
:102E9000040790910507A0910607B0910707C81A8B
:102EA000D90AEA0AFB0AA5019401C501B4010E94EE
:102EB0002B2B2B013C01A7019601C701B6010E94F3
:102EC0002B2B640D751D861D971D0E9488142B01E8
:102ED0003C0180E148165104610471045CF19A2DB3
:102EE000892D782D6627A30192010E94C82AF80136
:102EF00020833183428353839E2D8D2D7C2D662725
:102F0000A30192010E94C82A288339834A835B83E4
:102F100081E0DF91CF911F910F91FF90EF90DF90B3
:102F2000CF90BF90AF909F908F907F906F905F9069
:102F30004F90089580E0EDCF089590E080E00895EF
:102F40008F929F92AF92BF920F931F93CF93DF9375
:102F5000CDB7DEB7A1970FB6F894DEBF0FBECDBFD9
:102F600019A2423008F44AE08E010F5D1F4F842EF3
:102F7000912CB12CA12CA50194010E94FA2AE62FD4
:102F8000B901CA01EA3044F5E05DD801EE938D0144
:102F9000232B242B252B79F790E080E0109769F004
:102FA000FD0101900020E9F73197AF014A1B5B0B4F
:102FB000BD0181E897E00E94C40EA1960FB6F89477
:102FC000DEBF0FBECDBFDF91CF911F910F91BF909C
:102FD000AF909F908F900895E95CD7CF1092DD025B
:102FE0002E9A08950F931F93CF93DF938C01EB01DB
:102FF0000E94A02A8883C80101960E94A02A898382
:10300000CE01DF91CF911F910F910895FF920F9301
:103010001F93CF93DF93EC018B01FB01F0800E94A3
:10302000A02AF81621F06F2DCE010E94BA2AF801CD
:10303000F1802196CE010E94A02AF81621F06F2D72
:10304000CE010E94BA2AC801DF91CF911F910F9142
:10305000FF9008951F920F920FB60F9211248F9335
:103060009F938091E1009091E100937F9093E10024
:1030700083FF0FC01092E90091E09093EB00109253
:10308000EC0092E39093ED001092FF0298E0909391
:10309000F00082FF22C093E09093E9009091F2004B
:1030A000992319F09AE39093E8009091F002992304
:1030B00041F09091F00291509093F002911101C073
:1030C0005D9A9091FE02992341F09091FE029150F9
:1030D0009093FE02911101C0289A84FF18C080913C
:1030E000E2008E7E81608093E2008091E1008F7E1D
:1030F0008093E1008091F1028E7E80618093F102E5
:103100009F918F910F900FBE0F901F90189580FF89
:10311000F7CF8091E2008E7E80618093E200809103
:10312000E1008E7E8093E1008091F1028E7E8160CD
:10313000E5CF1F920F920FB60F921124CF92DF921C
:10314000EF92FF920F931F932F933F934F935F93B1
:103150006F937F938F939F93AF93BF93EF93FF935F
:10316000CF93DF93CDB7DEB76C97DEBFCDBF1092A4
:10317000E9008091E80083FF25C068E0CE01459614
:103180000E94080E82EF8093E8008D8987FF39C086
:103190009091E80090FFFCCF982F907609F034C111
:1031A0009E894F89588D2F89F88C911131C08038B4
:1031B00061F58091EF028093F1001092F1008EEFA3
:1031C0008093E8006C960FB6F894DEBF0FBECDBFBB
:1031D000DF91CF91FF91EF91BF91AF919F918F912F
:1031E0007F916F915F914F913F912F911F910F911F
:1031F000FF90EF90DF90CF900F900FBE0F901F9039
:1032000018959EEF9093E800C7CF1092F100D5CFAC
:10321000913059F48111D3CF4130510581F680911D
:10322000EF028D7F8093EF02CACF933049F4811172
:10323000C6CF4130510519F68091EF028260F2CF7E
:10324000953041F48091E80080FFFCCF2068209306
:10325000E300B5CF963009F0A9C00B8D1C8D22E09C
:103260001092E9001092ED021092EC02F2122EC0C0
:103270001092EB021092EA020E94D70D1F8299E091
:103280009983FA8291E09E8390EA98879AEF9987D2
:103290002091EC023091ED02275F3F4F3C832B835E
:1032A0008D831092E9001092ED021092EC021093BF
:1032B000EB020093EA0249E050E0BE016F5F7F4FEE
:1032C00080E00E94B10D0E94D70D79CF1093EB02E0
:1032D0000093EA020E94EE0CDC0112960D911C9103
:1032E0000115110509F451C1D801ED91FC9104803B
:1032F000F581E02DBE016B5E7F4FC80109950097F7
:1033000009F03EC1F80100851185EACFF3E0FF1214
:103310000EC08F89882309F440C0823061F440E8F0
:1033200067E087E597E10E94151B811148CF81E294
:103330008093EB0047CF813029F440E86BE08BE4C9
:1033400097E1F1CF833099F70E94EE0CDC011296E1
:10335000ED90FC908E010F5F1F4F6801E114F104A6
:1033600079F0D701ED91FC910680F781E02DB8014D
:10337000C7010995080F111DF701E084F184EECF14
:10338000D8011C92F60101900020E9F73197BF01A6
:103390006C197D0940E0C601C6CF65E377E1FB010A
:1033A000449150E080E80E94B10D09CF973009F4B4
:1033B000BECF983021F481E08093F10000CF9930A6
:1033C00009F0FDCE837009F0B2CFECECF1E081E0C2
:1033D00031E096E32191222371F08093E90030934C
:1033E000EB00DF0111972C912093EC009093ED00FE
:1033F0008F5F873079F78EE78093EA001092EA00BA
:103400008F898093FF02DBCE8B8D9C8D1092E9001B
:103410001092ED021092EC029093EB028093EA027C
:10342000898D811192C08E899D89913A49F48132AA
:1034300009F07DCF47E050E066E071E080E0B3CF77
:10344000913209F074CF833269F48F89988DB0E09E
:10345000A0E08093020190930301A0930401B09334
:103460000501ADCE803269F48091E80082FFFCCF87
:1034700067E086E091E00E94080E8BEF8093E80001
:103480009ECE823209F09BCE8F8980930D01EEEFA4
:10349000FFE7859194918B3F9C4D51F1E0E0F8E07E
:1034A0008091060190910701A0910801B091090156
:1034B000803B9440A105B105F1F480910D0180FDA0
:1034C0001AC0EE3F8AE0F80789F587E797E791830E
:1034D0008083809160008093EE0288E19BE00FB6CC
:1034E000F894A895809360000FBE9093600067CE1B
:1034F000EEEFFAE0D5CF808191818737974709F0C9
:103500005ECEA89580916000886180936000809174
:10351000EE0280936000EE3F2AE0F20789F080918E
:10352000FE0A9091FF0A9183808349CE8081918128
:103530008737980751F29093FF0A8093FE0AC5CF10
:103540001092FF0A1092FE0A3ACE0E94EE0CDC01A5
:1035500012960D911C910115110509F4E8CED801C0
:10356000ED91FC910190F081E02DBE016B5E7F4FEB
:10357000C8010995811123CEF80100851185EBCF93
:10358000181619060CF41BCED2CEF1E0FF12BECEF7
:1035900069E377E104CF0F920FB68F939F93EF9378
:1035A000FF938091E1028D5F8D3708F08D578093F6
:1035B000E102E2EEF2E080818E4F808391819F4FA5
:1035C000918382818F4F828383818F4F8383E6EE45
:1035D000F2E080818F5F808381818F4F8183828140
:1035E0008F4F828383818F4F83838FB18F606699E2
:1035F0001C9B88278F3681F48091E002981B9630BF
:1036000068F0E0E0F8E087E78083818388E18093D9
:103610006000F0936000FFCF9093E002FF91EF9184
:103620009F918F910FBE0F901895EF92FF920F937D
:103630001F93CF93DF93F82E192FE62E042F81E0EE
:10364000860F880F0E94830D83E00E94830DCF2D8B
:10365000D12FEC0EFD2EF11CCE15DF05B9F007FFC2
:1036600013C0FE0184910E94830D182F80E00E94F8
:10367000830D812321968111EFCFDF91CF911F918F
:103680000F91FF90EF9008958881EDCF81E0F5CF05
:10369000E1E3F7E01382128288EE93E0A0E0B0E06D
:1036A00084839583A683B78386ED91E0918380839D
:1036B0008FEF9FEF95878487E1E8F7E0138212820E
:1036C00088EE91E0918380830895CDB7DEB7C4562C
:1036D000D109DEBFCDBF789483E084BD83E085BD92
:1036E00081E080936E00E1E8F0E083E08083E0E831
:1036F00081E08083E1E983E08083E0E981E0808309
:10370000E1EC87E08083E3EC81E08083E0EC82E021
:103710008083E2EC81E08083EAE787E08083806851
:1037200080831092FF021092EF021092F1028091BA
:10373000D70081608093D70080EA8093D80089B554
:10374000806189BD89B5826089BD09B400FEFDCF65
:1037500081E090E00E94150E8091D8008F7C8061FE
:103760008093D8008091E000807F8093E00080917A
:10377000E1008E7E8093E1008DE08093E200559A17
:10378000209A81EC80937C0081EF85B987EE84B923
:1037900084E38BB984EF8AB9769A6E9880EF81BB07
:1037A00010BA80E58CBD81E08DBD85E00E94F10EF0
:1037B0005F9A85E00E94F10E5C98ECE7F6E1859156
:1037C0008EBD00000DB407FEFDCFE938C1F75C9A4D
:1037D00081E88093640081E0809365000E94120F6D
:1037E00080E80E94070F8823A9F05C9885EA8EBDC7
:1037F00000000DB407FEFDCF5C9A2E982F982D98EF
:103800008091640080628093640081E083BF88952A
:1038100013BEFCCF84E00E94070F8823B9F12D98D6
:1038200084E80E94070F8823A1F02D9A88EC0E945B
:10383000F10E2F986FEF82E090E00E94A82A84EFAB
:1038400091E00E94150E2F9A84E80E94070F8111C3
:10385000FBCF84E10E94070F8823A1F02D9A88EC0A
:103860000E94F10E2E9860E082E090E00E94A82A6B
:1038700084EF91E00E94150E2E9A84E10E94070FBA
:103880008111FBCF88EC0E94F10EC4CF2D9A82E00B
:1038900090E00E94A02A882309F464C03E9A3F9ACF
:1038A00081E090E00E94A02A182F147081FF0EC0C2
:1038B00011112E9851EFE52EFF24FA9480E40E9416
:1038C000070F882309F451C02E9A2F9A82E30E9491
:1038D000F10E0E94F40E8111F9CF80E18093000176
:1038E00080E190E09093CC028093CB0227961FAEAC
:1038F0001EAE2797BE016B5B7F4F0E94F217279683
:103900008EAD9FAD27978434974409F089C010E0AD
:1039100000E0B80169547D4F8091CB029091CC02B8
:103920000296800F911F0E94F2170E5F1F4F043105
:10393000110579F71092CD020E9429140E94EE170A
:103940001E0153E3250E311C8091A802882309F43F
:1039500091C01092A80280E090E0892BA9F30E9408
:103960000000F2CF3E983F989BCF112331F004E046
:10397000E016F10411F42E9A2F9881E00E94A40C15
:1039800000E128E54CEC55E1B70184E190E00E94AC
:10399000DB0B0E94120F8FE00E94F10E2FEFE21A54
:1039A000F20A39E1E316F10409F088CF112311F08E
:1039B0002F9A2D9880E991E00E94150E2D9A81E0B2
:1039C00090E00E94A02A80FF81CF8AE090E00E94D0
:1039D000A02A9FEF980F9E3F08F078CF22E330E0B7
:1039E0003093B1022093B00228E330E03093B30269
:1039F0002093B2020AE010E0682F81E897E00E946D
:103A00007C100F5F1F4FC8010E94A02A00311105D2
:103A100099F70E94120F88EE93E00E94150E56CF80
:103A20008BEC92E0E7EBF2E0119211928E179F0778
:103A3000D9F784E497E49A838983BE016F5F7F4F4F
:103A40008091CB029091CC020E94061810E000E019
:103A5000B80169547D4F8091CB029091CC020296BF
:103A6000800F911F0E9406180E5F1F4F0431110531
:103A700079F760CF9091E2028091A902A92FA81B4B
:103A80008A2F20910001A21748F48F5F821708F057
:103A900062CF81E083BF889513BE5DCF81E08093C4
:103AA000A8029093A902E6EAF2E080819181019652
:103AB000808391838091B5028093B4020E94F40EBA
:103AC0008093B5028091DE029091DF02019690937F
:103AD000DF028093DE028091DD02811115C080E853
:103AE0000E94070F882381F080E10E94070F88233E
:103AF00059F08091DC028F5F8093DC02853B30F0CF
:103B0000F8940C94011B02C01092DC021091DD02AB
:103B1000113011F00C94752688E00E94070F6C9606
:103B20008FAF6C9784E00E94070F6D968FAF6D97F3
:103B300080E20E94070F182F80E40E94070FE82FF1
:103B40008091240781110C94C125C0900007D0906A
:103B50000107E0900207F090030780901201909017
:103B60001301A0901401B090150180910807909165
:103B70000907A0910A07B0910B07A7019601281B1E
:103B8000390B4A0B5B0BC501B4010E942B2B272F6D
:103B9000382F492F552747FD5A952B962CAF3DAF0F
:103BA0004EAF5FAF2B974090040750900507609091
:103BB00006077090070780910C0790910D07A09160
:103BC0000E07B0910F07A3019201281B390B4A0B76
:103BD0005B0BC501B4010E942B2B672F782F892F17
:103BE000992787FD9A95C0920807D0920907E0921D
:103BF0000A07F0920B0740920C0750920D07609253
:103C00000E0770920F072B962CAD3DAD4EAD5FADFC
:103C10002B97C20ED31EE41EF51EC0920007D09251
:103C20000107E0920207F092030720910E01309104
:103C30000F0140911001509111012B962CAF3DAF17
:103C40004EAF5FAF2B97620F731F841F951F460EF9
:103C5000571E681E791E4092040750920507609215
:103C6000060770920707C0901007D0901107E090E8
:103C70001207F09013078091180790911907A091EF
:103C80001A07B0911B07A7019601281B390B4A0B95
:103C90005B0BC501B4010E942B2B272F382F492F16
:103CA000552747FD5A952F962CAF3DAF4EAF5FAFCE
:103CB0002F9740901407509015076090160770904A
:103CC000170780911C0790911D07A0911E07B091C6
:103CD0001F07A3019201281B390B4A0B5B0BC5017F
:103CE000B4010E942B2B672F782F892F992787FDEE
:103CF0009A95C0921807D0921907E0921A07F0928D
:103D00001B0740921C0750921D0760921E0770927D
:103D10001F072F968CAC9DACAEACBFAC2F97C80CD8
:103D2000D91CEA1CFB1CC0921007D0921107E0922C
:103D30001207F09213072B968CAC9DACAEACBFACC7
:103D40002B97680D791D8A1D9B1D460E571E681EF8
:103D5000791E4092140750921507609216077092D0
:103D6000170730E020E01E1731F020E031E011119C
:103D700002C020E03FEF80912B0790912C07821723
:103D800093070CF096C24091360150913701840F91
:103D9000951F281739070CF49AC290932C0780932B
:103DA0002B07BE016F5F7F4FCE014B960E94191704
:103DB000882309F48CC1E0912B07F0912C07E9804E
:103DC000FA800B811C812B96ECAEFDAE0EAF1FAFBF
:103DD0002B974B8C5C8C6D8C7E8C00911007109116
:103DE000110720911207309113072F960CAF1DAFCA
:103DF0002EAF3FAF2F978090000790900107A090C3
:103E00000207B090030763968CAE9DAEAEAEBFAE18
:103E10006397E0901407F090150700911607109132
:103E200017076796ECAEFDAE0EAF1FAF6797009118
:103E300004071091050720910607309107076B963C
:103E40000CAF1DAF2EAF3FAF6B9720913A01309171
:103E50003B0140913C0150913D01DF010E94F22A5B
:103E6000872E982EA92EBB24A7FCBA94A5968CAEBB
:103E70009DAEAEAEBFAEA597809118079091190781
:103E8000A0911A07B0911B072F962CAD3DAD4EADFA
:103E90005FAD2F97281B390B4A0B5B0B80910807EE
:103EA00090910907A0910A07B0910B076396ECACBB
:103EB000FDAC0EAD1FAD6397E81AF90A0A0B1B0B98
:103EC000D801C701281B390B4A0B5B0B2B966CAD35
:103ED0007DAD8EAD9FAD2B970E942B2B4B015C01CE
:103EE00080911C0790911D07A0911E07B0911F079C
:103EF00067962CAD3DAD4EAD5FAD6797281B390B76
:103F00004A0B5B0B80910C0790910D07A0910E0757
:103F1000B0910F076B96ECACFDAC0EAD1FAD6B977F
:103F2000E81AF90A0A0B1B0B2E193F09400B510B1B
:103F3000C301B2010E942B2B861A970AA80AB90A5C
:103F4000892C9A2CAB2CBB24A7FCBA94A5962CAD3B
:103F50003DAD4EAD5FADA597281939094A095B09FA
:103F6000EF2B09F4B9C160913E0170913F0180913E
:103F70004001909141010E942B2BBB2797FDBA95E0
:103F8000A92F982F872F009146011091470120916A
:103F9000480130914901CC24DD247601C01AD10AB0
:103FA000E20AF30A8C159D05AE05BF054CF06C01C5
:103FB0007D010C151D052E053F0514F468017901DE
:103FC00080912507882391F060914A0170914B01FF
:103FD00080914C0190914D01A70196010E942B2BDD
:103FE000C72ED82EE92EFF24E7FCFA94C114D10481
:103FF000E104F10409F46BC02B962CAD3DAD4EAD40
:104000005FAD2B97C701B6010E942B2B872E982EF0
:10401000A92EBB24A7FCBA9422273327A90124196F
:10402000350946095709C701B6010E942B2BBB274A
:1040300097FDBA95A92F982F872F2F960CAD1DAD00
:104040002EAD3FAD2F97080D191D2A1D3B1D009366
:1040500010071093110720931207309313076796E8
:104060000CAD1DAD2EAD3FAD6797080F191F2A1F70
:104070003B1F0093140710931507209316073093E6
:10408000170763960CAD1DAD2EAD3FAD63970819B4
:1040900019092A093B09009300071093010720938F
:1040A0000207309303076B960CAD1DAD2EAD3FADEF
:1040B0006B97081B190B2A0B3B0BD901C801809386
:1040C000040790930507A0930607B0930707009194
:1040D0005201C0901007D0901107E0901207F090A5
:1040E00013078090000790900107A0900207B090FE
:1040F00003072F968CAE9DAEAEAEBFAE2F978090CD
:10410000140790901507A0901607B09017072B96EC
:104110008CAE9DAEAEAEBFAE2B9780900407909054
:104120000507A0900607B0900707A1968CAE9DAE3C
:10413000AEAEBFAEA19780901A0190901B01A090E7
:104140001C01B0901D016B968CAE9DAEAEAEBFAEA5
:104150006B9710E0011709F4C8C0260137012F96AC
:104160008CAC9DACAEACBFAC2F97481859086A0810
:104170007B082B968CAC9DACAEACBFAC2B97A196BC
:104180002CAD3DAD4EAD5FADA197821A930AA40A46
:10419000B50A63968CAE9DAEAEAEBFAE6397A3017B
:1041A0009201C301B2010E942B2B4B015C0163966B
:1041B0002CAD3DAD4EAD5FAD6397CA01B9010E9414
:1041C0002B2B680D791D8A1D9B1D0E9488149B0155
:1041D000AC0120313105410551050CF468C06B96E6
:1041E0008CAC9DACAEACBFAC6B97681979098A09F1
:1041F0009B09982F872F762F66270E94C82A49018E
:104200005A01A3019201C501B4010E942B2B2B017D
:104210003C01B9E07594679457944794BA95D1F7E7
:1042200063962CAD3DAD4EAD5FAD6397C501B40156
:104230000E942B2BDC01CB0129E0B595A795979522
:1042400087952A95D1F72F968CAC9DACAEACBFACC0
:104250002F97840C951CA61CB71C2F968CAE9DAE78
:10426000AEAEBFAE2F97A1968CAC9DACAEACBFAC42
:10427000A197880E991EAA1EBB1EA1968CAE9DAE5C
:10428000AEAEBFAEA197C418D508E608F7082B96C6
:104290008CAC9DACAEACBFAC2B97881A990AAA0A1D
:1042A000BB0A2B968CAE9DAEAEAEBFAE2B971F5FFA
:1042B00051CF281739070CF074CD40913601509139
:1042C0003701841B950B821793070CF066CD309352
:1042D0002C0720932B0765CD60914201709143011B
:1042E000809144019091450146CEC0921007D09232
:1042F0001107E0921207F09213072F96ECACFDAC79
:104300000EAD1FAD2F97E0920007F09201070093CA
:104310000207109303072B968CAC9DACAEACBFACE0
:104320002B978092140790921507A0921607B092CF
:104330001707A196ECACFDAC0EAD1FADA197E092B6
:104340000407F092050700930607109307079E01E4
:10435000255C3F4FAE01415C5F4F60E277E080E05B
:1043600097E00E94D014182F9101AE01495C5F4F75
:1043700062E277E080E197E00E94D0141093250775
:104380008093260780E097E00E94DE1180E197E0AD
:104390000E94DE11112309F478C04BAC5CAC6DAC0B
:1043A0007EAC7094609450944094411C511C611CEC
:1043B000711C23960CAD1DAD2EAD3FAD23972B96F2
:1043C0000CAF1DAF2EAF3FAF2B978090080790909A
:1043D0000907A0900A07B0900B07E0900C07F09037
:1043E0000D0700910E0710910F072F96ECAEFDAE52
:1043F0000EAF1FAF2F976C96FFAC6C97FF2009F4A0
:10440000BBC0C0902201D0902301E0902401F09025
:104410002501A3019201C701B6010E942B2B672F32
:10442000782F892F992787FD9A95861A970AA80AC7
:10443000B90A8092080790920907A0920A07B092E1
:104440000B072B962CAD3DAD4EAD5FAD2B97C70145
:10445000B6010E942B2B672F782F892F992787FD74
:104460009A952F960CAD1DAD2EAD3FAD2F97061B27
:10447000170B280B390BD901C80180930C079093B7
:104480000D07A0930E07B0930F07BE016F5F7F4F1C
:10449000CE014B960E941917882309F45CC3C09083
:1044A0000007D0900107E0900207F090030780908A
:1044B000040790900507A0900607B09007072B9679
:1044C0008CAE9DAEAEAEBFAE2B974B8C5C8C6D8C24
:1044D0007E8C09811A812B813C812F960CAF1DAFF8
:1044E0002EAF3FAF2F978091080790910907A091B9
:1044F0000A07B0910B07A7019601281B390B4A0B3D
:104500005B0BC301B2010E942B2B4B015C0180911C
:104510000C0790910D07A0910E07B0910F072B96F5
:104520002CAD3DAD4EAD5FAD2B97281B390B4A0B23
:104530005B0B2F966CAD7DAD8EAD9FAD2F970E941E
:104540002B2B860E971EA81EB91E892C9A2CAB2CDD
:10455000BB24A7FCBA948091290790912A07880E62
:10456000991E10E2811619E191060CF438C120E27F
:10457000821A29E1920AF5CF2091000730910107B4
:104580004091020750910307281939094A095B092C
:10459000C301B2010E942B2B6B017C012091040707
:1045A0003091050740910607509107072F968CAD73
:1045B0009DADAEADBFAD2F97281B390B4A0B5B0BE2
:1045C0002B966CAD7DAD8EAD9FAD2B970E942B2BA6
:1045D000A7019601260F371F481F591F232F342F7D
:1045E000452F552747FD5A956D96EFAC6D97EE20F8
:1045F00009F4ECC080912A0190912B01A0912C012B
:10460000B0912D0182179307A407B5070CF043C0A2
:1046100060912601709127018091280190912901D4
:104620000E942B2BC72ED82EE92EFF24E7FCFA94EC
:10463000A3019201C701B6010E942B2B672F782F8F
:10464000892F992787FD9A95860E971EA81EB91E59
:104650008092080790920907A0920A07B0920B0770
:104660002B962CAD3DAD4EAD5FAD2B97C701B6017E
:104670000E942B2B672F782F892F992787FD9A95DA
:104680002F960CAD1DAD2EAD3FAD2F97600F711F56
:10469000821F931F4FC08091320190913301A091EE
:1046A0003401B0913501B095A095909581959F4FBB
:1046B000AF4FBF4F82179307A407B5070CF043C055
:1046C000C0902E01D0902F01E0903001F090310188
:1046D000A3019201C701B6010E942B2B672F782FEF
:1046E000892F992787FD9A95860E971EA81EB91EB9
:1046F0008092080790920907A0920A07B0920B07D0
:104700002B962CAD3DAD4EAD5FAD2B97C701B601DD
:104710000E942B2B672F782F892F992787FD9A9539
:104720002F968CAC9DACAEACBFAC2F97680D791DAD
:104730008A1D9B1D60930C0770930D0780930E07D5
:1047400090930F07A2CE60911E0170911F0180917E
:104750002001909121010E942B2BC72ED82EE92EEB
:10476000FF24E7FCFA94A3019201C701B6010E945D
:104770002B2B672F782F892F992787FD9A95860EE7
:10478000971EA81EB91E8092080790920907A09252
:104790000A07B0920B072B962CAD3DAD4EAD5FAD29
:1047A0002B97C701B6010E942B2B672F782F892FDB
:1047B000992787FD9A952F96ECACFDAC0EAD1FADF9
:1047C0002F976E0D7F1D801F911FB4CF60911E012A
:1047D00070911F01809120019091210121CF97FEBE
:1047E00005C030EE831A36EE930AF9CF90922A076D
:1047F0008092290780904E0190904F01A090500127
:10480000B09051018091100790911107A09112076B
:10481000B09113078C0D9D1DAE1DBF1D6C017D0158
:10482000F594E794D794C7942F962CAD3DAD4EAD3B
:104830005FAD2F97C501B4010E942B2B672F782FF6
:10484000892F992787FD9A9597018601060F171FD3
:10485000281F391F63960CAF1DAF2EAF3FAF639774
:10486000C0901407D0901507E0901607F090170736
:104870002B960CAD1DAD2EAD3FAD2B97C00ED11EAE
:10488000E21EF31EF594E794D794C794A301920116
:10489000C501B4010E942B2B672F782F892F9927F0
:1048A00087FD9A9546015701861A970AA80AB90A00
:1048B00067968CAE9DAEAEAEBFAE67976091200797
:1048C000709121076396ECACFDAC0EAD1FAD639704
:1048D000BB2717FDBA95A12F902F8F2D0E949C11F9
:1048E0008C01BC0180912D0790912E070E9492119E
:1048F000092E000CAA0BBB0B8824982EA92EBA2EC9
:104900002B968CAE9DAEAEAEBFAE2B97B80180910C
:104910002D0790912E070E948711092E000CAA0BDB
:10492000BB0B8824982EA92EBA2E2F968CAE9DAE46
:10493000AEAEBFAE2F970F5F1F4FB80180912D070E
:1049400090912E070E9492114C01B80180912D0781
:1049500090912E070E948711092C000CAA08BB0811
:10496000BA2CA92C982C88242B96ECACFDAC0EAD5F
:104970001FAD2B978E189F08A00AB10A6C01990FE2
:10498000EE08FF08FE2CED2CDC2CCC242F960CAD71
:104990001DAD2EAD3FAD2F97C01AD10AE20AF30A22
:1049A000A5019401C501B4010E942B2B2B013C01F0
:1049B000A7019601C701B6010E942B2B460E571E78
:1049C000681E791E452C562C672C772467FC7A9438
:1049D00014141504160417040CF083C063962CAD50
:1049E0003DAD4EAD5FAD63972B968CAD9DADAEAD3D
:1049F000BFAD2B97281B390B4A0B5B0BC501B401CC
:104A00000E942B2B6B966CAF7DAF8EAF9FAF6B97D9
:104A100067962CAD3DAD4EAD5FAD67972F968CADD3
:104A20009DADAEADBFAD2F97281B390B4A0B5B0B6D
:104A3000C701B6010E942B2B6B960CAD1DAD2EADA0
:104A40003FAD6B97600F711F821F931FA3019201EF
:104A50000E94C82A29013A0111E041165106610459
:104A6000710424F0412C512C3201539477FE03C081
:104A7000412C512C3201A3019201C501B4010E94C5
:104A80002B2B672F782F892F992787FD9A952B96A7
:104A90008CAC9DACAEACBFAC2B97860E971EA81EFF
:104AA000B91E2B968CAE9DAEAEAEBFAE2B97C70196
:104AB000B6010E942B2B672F782F892F992787FD0E
:104AC0009A952F96ECACFDAC0EAD1FAD2F97E60E70
:104AD000F71E081F191F2F96ECAEFDAE0EAF1FAFCD
:104AE0002F9767968CAC9DACAEACBFAC67972F96FA
:104AF000ECACFDAC0EAD1FAD2F978E189F08A00A31
:104B0000B10A63966CAD7DAD8EAD9FAD63972B966C
:104B1000ECACFDAC0EAD1FAD2B976E197F09800B71
:104B2000910B9B01AC010E942B2B6B017C01A50119
:104B30009401C501B4010E942B2B6C0D7D1D8E1DAF
:104B40009F1D0E94881461157240810591051CF417
:104B500081E0809324078091000790910107A09144
:104B60000207B0910307892F9A2FAB2FBB27A7FD10
:104B7000BA9597FF02C090E080E090932807809359
:104B800027074091DA025091DB024F5F5F4F50934D
:104B9000DB024093DA0260912407662309F460C0C7
:104BA00082E08093DD0280E10E94FC0E81110E9470
:104BB000EE178091DD02823009F059C18091DE024A
:104BC00083FF55C12E9880E00E946B1390E0E0E0D7
:104BD000F3E091119FEF8FEF9193919391939193C4
:104BE0008150D0F71092B3021092B2021092B1022B
:104BF0001092B0028091DD028111C2C181E08093E8
:104C0000010109E110E01093B1020093B00283E0CA
:104C100090E09093B3028093B20284ED96E10E94FB
:104C200023111093B1020093B0028AE090E09093B8
:104C3000B3028093B20285EC96E10E942311E8E072
:104C4000F2E08E010F5F1F4F7801C801B02ECF2C0C
:104C50002191222309F40DC1DC012D93CD01F8CF60
:104C60008091000790910107A0910207B09103077E
:104C7000892F9A2FAB2FBB27A7FDBA952091D2027F
:104C80003091D302821793070CF48DCF83E0809389
:104C9000DD022091CD0225965FAF4EAF259730E023
:104CA000C901880F991FFC01E954FD4F0190F08163
:104CB000E02D309719F04E175F07A0F489549D4FEF
:104CC000DC014D935C938091CB029091CC020296D3
:104CD000220F331FBE016D5B7F4F820F931F0E9417
:104CE000061861E06093B6025ECF1111A6C080E4A1
:104CF0000E94FC0E182F882341F08091CD0289304C
:104D000008F08FC08F5F8093CD0280E20E94FC0E7E
:104D1000882309F488C08091CD02882309F483C0D8
:104D200081508093CD028091CD020E94C613809164
:104D3000D4029091D502092E000CAA0BBB0BBA2FFE
:104D4000A92F982F8827812CE4E19E2EA12CB12C2D
:104D50008092000790920107A0920207B092030789
:104D60008093040790930507A0930607B093070765
:104D70008092080790920907A0920A07B0920B0749
:104D800080930C0790930D07A0930E07B0930F0725
:104D900040911A0150911B0160911C0170911D01FD
:104DA0005C5E6F4F7F4F40931007509311076093E5
:104DB0001207709313078093140790931507A0931D
:104DC0001607B0931707409318075093190760937D
:104DD0001A0770931B0780931C0790931D07A093DD
:104DE0001E07B0931F0710922307109222071092FC
:104DF0002107109220071092240710922507109285
:104E00002607109228071092270710922A0710925F
:104E1000290710922C0710922B0781E00E946B1338
:104E200004C010E072CF11117ECF88E00E94FC0E0A
:104E30008823E9F00E942914BCCE80E10E94FC0E78
:104E40008111B5CE88E00E94FC0E8111F3CF1330A2
:104E500009F0AFCE80E40E94FC0E882341F08091DF
:104E6000CD02893020F48F5F8093CD02E3CF2E9A5C
:104E7000AACED090CD020D2D10E0B8016F5F7F4F0C
:104E80000E948A1220E2FC012083DC011296218319
:104E9000F1E0FD1578F464E0862EE1E0F2E08D1497
:104EA00058F457E0952EE0EFF1E09D1428F0ECEF78
:104EB000F1E002C0E7EFF1E08191882311F08D93DA
:104EC000FBCF1C92B70186E190E00E944F13E9E608
:104ED000F2E08191882321F0D7018D937D01F9CFF4
:104EE000000F111FF801E954FD4F608171816115B8
:104EF000710579F1C7010E94C712FC0110826B2D68
:104F00007C2D8EE190E00E944F13D1102DC04FE018
:104F100052E066E170E087E790E00E94E21263E110
:104F200072E08AE290E00E944F136AE272E081E34D
:104F300090E00E944F138091DE0285FF06C060E47E
:104F400072E08AE390E00E944F130E94120F0C94CB
:104F5000AB1C9DE2F701908391838EE282833496AD
:104F6000D70113969C93CACF41E152E066E170E00D
:104F700086E090E00E94E212B8E0BD1580F2C7CF53
:104F80006090AE027090AF0270E060E0C3010E94DA
:104F90009C117C01892B19F0E1E0EE1AF108570110
:104FA000FFEFAF1ABF0A80912F0790913007A81624
:104FB000B90608F04FC0B70180912D0790912E07D8
:104FC0000E9492116C01C618D708B50180912D0777
:104FD00090912E070E9492112C014618570857FCF9
:104FE00037C001E8C016D104ACF5B70180912D0798
:104FF00090912E070E9487118090AC029090AD0294
:105000008C0108191909B50180912D0790912E077F
:105010000E9487119C0128193909003411051CF0E0
:1050200020343105ACF4A201B801C6010E94300F52
:10503000E0FC0EC00F3311055CF4B80117FF02C08D
:105040006FEF7FEF2FE330E0A601C6010E94300F23
:105050007501A5CFB101CE01C7960E94191788230B
:1050600009F4C4C0EBA8FCA80FA918AD80910407EF
:1050700090910507A0910607B091070780589F4FB0
:10508000AF4FBF4F892F9A2FAB2FBB27A7FDBA95E4
:105090002091AC023091AD022C01421A530A80904B
:1050A000000790900107A0900207B090030720E846
:1050B000820E911CA11CB11C892C9A2CAB2CBB24F8
:1050C000A7FCBA948618970821E936E1DE015B96C1
:1050D000BE016F5F7F4F5B01F90144913196E4910E
:1050E000042E000C550B0E2E000CFF0B049FC0016C
:1050F000059F900D149F900D1124EE9E6001EF9E70
:10510000D00CFE9ED00C11248C0D9D1D80589F4FFD
:10511000892F990F990B880D991D8D939D93E49E6E
:105120006001E59ED00CF49ED00C11240E9FC001AE
:105130000F9F900D1E9F900D1124C81AD90AF0E8F8
:10514000CF0ED11CCD2CDD0CDD08C40CD51CFB0111
:10515000C192D192BF012E5F3F4F2A163B0609F044
:10516000BBCF09EA16E1E5ECEE2EE6E1FE2EF801F2
:1051700084913196A491B0E0E82FF0E0AA0FBB1F14
:10518000AA0DBB1D2D913C9111975A964D915C91A2
:10519000EE0FFF1FEA0DFB1D60817181828D938DE3
:1051A0000E94300F0E5F1F4FE016F10601F780914D
:1051B000290790912A0762E971E00E944F2B162F70
:1051C0001F7069817A81412F8B8D9C8D0E944512C1
:1051D0006B817C81412F8D8D9E8D0E9445126D8942
:1051E0007E8941E08FA598A90E94B40F10E000E0ED
:1051F00020E040E170E060E0C8010E943E110F5FD6
:105200001F4F00381105A1F725E044E770E060E08A
:1052100090E080E00E945D11C090D202D090D30255
:105220000D2C000CEE08FF08F4E1CF1AD108E108BC
:10523000F1081C141D041E041F04F4F42091270718
:105240003091280750E040E02451310941095109CB
:10525000A2E7B0E00E94E72AA70196010E94C82AAF
:1052600023373105410551050CF0FFC01216130616
:10527000140615060CF4FDC008E028E049E856E1E4
:1052800070E060E087E790E00E94DB0B1092B102D3
:105290001092B00288E090E09093B3028093B20243
:1052A0008091DA029091DB020CE310E0B8010E94D9
:1052B0003B2B90E080E04AE00E94A0176EE281E87C
:1052C00097E00E947C108091DA029091DB02B80195
:1052D0000E943B2B66E070E00E943B2B90E080E058
:1052E0004AE00E94A017E091CD02F0E0EE0FFF1F10
:1052F000E954FD4F6081718161157105A1F088E26B
:105300008983CE0102960E94C71229E2DC012C9308
:1053100011961C92AE014F5F5F4F69E070E080E232
:1053200090E00E94E2126091000770910107809165
:105330000207909103070091080710910907209137
:105340000A0730910B07601B710B820B930BC09007
:105350000407D0900507E0900607F090070700913A
:105360000C0710910D0720910E0730910F07C01AFE
:10537000D10AE20AF30A9B01AC010E942B2B4B01DC
:105380005C01A7019601C701B6010E942B2B680D95
:10539000791D8A1D9B1D0E9488149B01AC01E09120
:1053A000AA02F091AB02ACE3B0E00E94E72A3BE036
:1053B00095958795779567953A95D1F76E1B7F0BF5
:1053C00075956795759567956E0F7F1F7093AB0206
:1053D0006093AA0288E690E06436710510F48EE6C8
:1053E00090E09093B1028093B00288E090E09093B7
:1053F000B3028093B20290E080E04AE00E94A017DE
:10540000F090DD028EEF8F0D823008F09ECD02E12C
:1054100010E020E042E262E170E0C8010E943E112B
:105420000F5F1F4F0E361105A1F722E24CE562E136
:1054300070E082E190E00E945D11B2E0FB122DC0AD
:1054400085E290E09093B1028093B00287E190E012
:105450009093B3028093B2028BEE96E10E942311E7
:105460006AE472E086E290E06ECD22E730E040E050
:1054700050E001E010E079018FEFE81AF80A0E150C
:105480001F050CF0F9CE21E043E061E070E0C801B7
:105490000E943E110F5F1F4FF2CF88E290E0909381
:1054A000B1028093B00285E190E09093B3028093C3
:1054B000B20283EE96E10E942311E0E6F2E0CE0113
:1054C0000196F82E092F2191222321F0DC012D9342
:1054D000CD01F9CF6091DA027091DB020E94C71210
:1054E000E6E6F2E02191222321F0DC012D93CD01AB
:1054F000F9CF1091CD02E12FF0E0EE0FFF1FE9543C
:10550000FD4F608171810E94C712FC0110826F2DD6
:10551000702F8FE190E00E944F138091B602882394
:1055200031F06FE672E086E290E00E944F136BE785
:1055300072E0193010F060E972E08DE290E003CD86
:10554000F999FECF92BD81BDF89A992780B508954B
:10555000262FF999FECF92BD81BDF89A019700B42C
:10556000021639F01FBA20BD0FB6F894FA9AF99ACC
:105570000FBE0895262FF999FECF1FBA92BD81BDA7
:1055800020BD0FB6F894FA9AF99A0FBE01960895C5
:10559000052E97FB1EF400940E94DF2A57FD07D0CA
:1055A0000E94FA2A07FC03D04EF40C94DF2A50958F
:1055B0004095309521953F4F4F4F5F4F08959095FF
:1055C0008095709561957F4F8F4F9F4F08950E94F2
:1055D0001C2BA59F900DB49F900DA49F800D911D35
:1055E00011240895B7FF0C94E72A0E94E72A821B32
:1055F000930B0895A1E21A2EAA1BBB1BFD010DC03F
:10560000AA1FBB1FEE1FFF1FA217B307E407F50772
:1056100020F0A21BB30BE40BF50B661F771F881F4E
:10562000991F1A9469F760957095809590959B01E4
:10563000AC01BD01CF010895A29FB001B39FC0018D
:10564000A39F700D811D1124911DB29F700D811DAE
:105650001124911D0895DB018F939F930E94E72AE7
:10566000BF91AF91A29F800D911DA39F900DB29FFE
:10567000900D11240895AA1BBB1B51E107C0AA1F5E
:10568000BB1FA617B70710F0A61BB70B881F991FE3
:105690005A95A9F780959095BC01CD01089597FB87
:1056A000072E16F4009407D077FD09D00E943B2BFB
:1056B00007FC05D03EF4909581959F4F0895709515
:1056C00061957F4F0895EE0FFF1F0590F491E02D37
:0656D0000994F894FFCFDD
:1056D6001001FFFFFFFF00E10000000000001800BE
:1056E6000000FE00000000040000000F000008009B
:1056F60000001600000078000000400000000E00C8
:1057060000000002000030000000BC02000014008F
:10571600000005000000310000006E000000000CD3
:105726000000034C0F2800A6016A006E0078006492
:105736000E3A006F026A005F0087003C0D4A0015B2
:10574600036A005C00A300F00B53007A036A005A58
:1057560000A500680A62002B046A003D00A700A8A5
:10576600087000DE046A002600A900B8067C006303
:10577600056A002000AB00C4047D005F056A001ABC
:1057860000AD00C002810094056A000800AF00ACBD
:10579600008500BC056A000100B10000C1808100DF
:1057A600000000000000020D290E230D180D690DE2
:1057B600270D450D000000007C10C40E9D179C1798
:1057C60042525554414C00454153590048415244B8
:1057D600004D454449554D004C4556454C20003E2C
:1057E600003C00413D4741532020423D4252414B3F
:1057F600452F52455645525345003C3E203D204CD0
:1058060045414E2020202076203D204D454E550016
:1058160041203D2053544152540041203D205245E1
:105826005452592020202076203D204D454E5500CB
:1058360054494D4520002020204245535420004E17
:105846004557205245434F524421003E203D204EAD
:105856004558542020202076203D204D454E5500A9
:1058660041203D20414741494E20202076203D20C1
:065876004D454E550000F7
:00000001FF
