:100000000C94600D0C94880D0C94880D0C94880D44
:100010000C94880D0C94880D0C94880D0C94880D0C
:100020000C94880D0C94880D0C944E1D0C94BD1DE1
:100030000C94880D0C94880D0C94880D0C94880DEC
:100040000C94880D0C94880D0C94880D0C94880DDC
:100050000C94880D0C94880D0C94880D0C94EF1F53
:100060000C94880D0C94880D0C94880D0C94880DBC
:100070000C94880D0C94880D0C94880D0C94880DAC
:100080000C9439200C94880D0C94880D0C94880DD8
:100090000C94880D0C94880D0C94880D0C94880D8C
:1000A0000C94880D0C94880D0C94880D000022008F
:1000B0000C00220018002200240022003000220040
:1000C0003C00220047001900520010005E000A00A8
:1000D00069000500740004007F0005008A000A0022
:1000E00096001000A1001900AC002200C2004800D8
:1000F000CE003E00D9003600E5003000F0002C00B4
:10010000FC002C0007013000130136001E013E00E8
:100110002A0148003E016A0049016100530159006B
:100120005E01530069015000730150007E015300CD
:1001300089015900930161009E016A00B601920095
:10014000C1018900CC018100D7017C00E2017A0065
:10015000ED017C00F8018100030289000E0292008B
:1001600019029300230296002E029A003902A00081
:100170004402A7004E02AF005902B7006402BF005C
:100180006E02C7007902CE008402D4008F02D8002C
:100190009902DB00A402DC00B402DC00BF02DB0039
:1001A000C902D800D402D300DF02CC00EA02C400A6
:1001B000F402BB00FF02B1000A03A70014039E0073
:1001C0001F0396002A038F0035038A003F03870030
:1001D0004A0386005503820060037E006B038200A1
:1001E00076038600810382008C037E0097038200E1
:1001F000A2038600AD038200B8037E00C303820021
:10020000CE038600D9038300E5037A00F0036E0075
:10021000FC0360000704540013044B001E04480054
:100220002A04480036044800420448004E044800AE
:100230005A04480000001A000C001A0018001A00A6
:1002400025001A0031001A003D001A0049001A006A
:1002500056001A0062001A006E001A007900180099
:10026000840016008F0015009A001800A4001A00E0
:10027000AF001900BA001700C5001500D000170024
:10028000DB001900E6001A00F0001800FB00150062
:1002900006011600110118001C011A0027011A009E
:1002A00032011A003E011A0049011A0054011A00D5
:1002B00060011A006B011A0076011A00A40168009F
:1002C000B0016800BB016800C7016800D301680085
:1002D000DE016800EA016800F501660000026400C2
:1002E0000B02620016026400210266002C02680004
:1002F00037026600420264004D0262005802640048
:10030000630266006E0268007A0268008502680077
:10031000910268009D026800A8026800B4026800AB
:10032000E702BE00F202BF00FD02C0000803C300E6
:100330001303C7001E03CB002903CF003403D300EF
:100340003F03D6004A03D7005503D8006103D80005
:100350006D03D8007903D8008503D8009103D80035
:100360009C03D800A703D700B203D500BD03D30078
:10037000C803D000D303CD00DE03C900E903C400E5
:10038000F403BF000004B9000B04B3001604AD0071
:100390002104A6002C049F0037049800420490001A
:1003A0004D04890058048100630479006E047100D3
:1003B00079046900840462008F045A009A0453008F
:1003C000A5044C00B0044500BB043F00C60439003E
:1003D000D2043300DD042E00E8042900F3042500D4
:1003E000FE04220009051F0014051D001F051B0047
:1003F0002A051A0035051A0041051A004D051A0094
:100400005A051A0066051A0072051A007E051A00C0
:100410008B051A0097051A00A3051A00AE051800EF
:10042000B9051600C4051500CE051800D9051A0037
:10043000E4051900EF051700FA0515000506170079
:10044000100619001B061A002606180030061500B3
:100450003B0616004606180051061A005C061A00F4
:1004600068061A0073061A007E061A0089061A002A
:1004700094061A00A0061A00AB061A00DC066E00ED
:10048000E8066E00F3066E00FF066E000B076E00B6
:1004900016076E0022076E002D076C0038076A00F1
:1004A000430768004E076A0059076C0064076E0036
:1004B0006F076C007A076A008507680090076A007A
:1004C0009B076C00A6076E00B2076E00BD076E00AA
:1004D000C9076E00D5076E00E0076E00EC076E00DE
:1004E0002208CA002D08CB003808CC004308CF00F2
:1004F0004E08D3005908D7006408DB006F08DF00FE
:100500007A08E2008508E3009008E4009C08E40013
:10051000A808E400B408E400C008E400CC08E40043
:10052000D708E400E208E300ED08E100F808DF0086
:100530000309DC000E09D8001909D4002409CF00F2
:100540002F09CA003B09C4004609BD005109B70084
:100550005C09B0006709A8007209A0007D09990034
:1005600088099000930988009E098000A9097800F5
:10057000B4097000BF096700CA096000D5095800B6
:10058000E0095000EB094900F6094300010A3C006C
:100590000D0A3600180A3100230A2C002E0A280002
:1005A000390A2400440A21004F0A1F005A0A1D007C
:1005B000650A1C00700A1C007C0A1C00880A1C00CA
:1005C000950A1C00A10A1C00AD0A1C00B90A1C00F7
:1005D000C60A1C00D20A1C00DE0A1C00E90A1A0026
:1005E000F40A1800FF0A17000A0B1A00140B1C006B
:1005F0001F0B1B002A0B1900350B1700400B1900AD
:100600004B0B1B00560B1C00600B1A006B0B1700EA
:10061000760B1800810B1A008C0B1C00970B1C002A
:10062000A20B1C00AE0B1C00B90B1C00C40B1C0061
:10063000D00B1C00DB0B1C00E60B1C001B0C760017
:10064000270C7600320C76003E0C76004A0C7600C1
:10065000550C7600610C76006C0C7400770C7200FF
:10066000820C70008D0C7200980C7400A30C760044
:10067000AE0C7400B90C7200C40C7000CF0C720088
:10068000DA0C7400E50C7600F10C7600FC0C7600B8
:10069000080D7600140D76001F0D76002B0D7600E8
:1006A000650DD800700DD9007B0DDA00860DDD00D8
:1006B000910DE1009C0DE500A70DE900B20DED00E4
:1006C000BD0DF000C80DF100D30DF200DF0DF200FA
:1006D000EB0DF200F70DF200030EF2000F0EF20028
:1006E0001A0EF200250EF100300EEF003B0EEC006A
:1006F000460EE900510EE5005C0EE100670EDC00DD
:10070000720ED6007E0ED000890EC900940EC20073
:100710009F0EBB00AA0EB300B50EAB00C00EA30027
:10072000CB0E9A00D60E9200E10E8900EC0E8000EE
:10073000F70E7800020F6F000D0F6700180F5F00B3
:10074000230F57002E0F5000390F4900440F42006D
:10075000500F3C005B0F3600660F3100710F2D000B
:100760007C0F2900870F2600920F23009D0F210088
:10077000A80F2000B30F2000BE0F2000CA0F2000DA
:10078000D50F2000E00F2000EB0F2000F60F200017
:10079000021020000D102000000078000B007800EF
:1007A00016007800220078002D00780038007800CC
:1007B000440078004F0078005A007800650075000A
:1007C000700073007B007500860078009100750052
:1007D0009C007300A7007500B2007800BE00750091
:1007E000C9007300D4007500DF007800EA007500CE
:1007F000F5007300000175000B0178001601780008
:10080000220178002D01780038017700430174003F
:100810004D01700058016C00630169006D016800B2
:100820007801690083016C008D01700098017400EB
:10083000A3017700AD017800B8017500C3016C0019
:10084000CE016100D9015800E4015500F0015000CB
:10085000FC015E0008026C0014027A001F027C009A
:100860002A02800035028400400286004A02860087
:10087000550286005F028600680293007202A000A3
:100880007C02AD008B02AD0095029F00A00291009A
:10089000AA028400B8028400C6028400D102780053
:1008A000DE027800EC027800F7026C0005036C00B1
:1008B00013036C001E0360002C0360003A03600009
:1008C00046036000530360005E035E006803590046
:1008D000730352007E03490089033F0093033600EF
:1008E0009E032F00A9032A00B4032800BF0325009C
:1008F000CA032300D5032500E0032800EB032500ED
:10090000F6032300010425000C042800180421002C
:1009100024041A0030042A003B043A0047044B0028
:1009200053045B005D045D006604610070046600B2
:100930007A046700850464008F0460009A046400F0
:10094000A5046700B0046400BB046000C604640032
:10095000D0046700DB046400E6046000F104640076
:10096000FC046700090567001605670022055B00A7
:100970002D054E0039054E0045054E0050054E0030
:100980005C054E0068054E0073054E0000007800BF
:100990000B00780016007800220078002D00780007
:1009A00038007800440078004F0078005A00780042
:1009B00065007600710073007C0076008700780087
:1009C000930076009E007300A9007600B5007800C1
:1009D000C0007600CB007300D7007600E2007800FC
:1009E000ED007600F9007300040176000F01780035
:1009F0001C01780028017800340178003F0177005D
:100A000049017400540170005F016C0069016A00C3
:100A1000740169007F016A0089016C009401700013
:100A20009F017400A9017700B4017800BF0175002F
:100A3000CB016D00D6016300E1015A00ED015700C2
:100A4000F9015300040260000F026D001B027A00DE
:100A500026027C00320280003E02840049028600A9
:100A6000540286005F0286006A02860074029200C9
:100A70007E029F008802AB009802AB00A002A1009A
:100A8000A8029700B0028E00B8028400C70284005A
:100A9000D5028400E0027800EF027800FD027800C1
:100AA00008036D0016036D0025036D00300362001E
:100AB0003E0362004C0362005A0362006703620057
:100AC000720360007D035C008803550093034C00B3
:100AD0009F034300AA033A00B5033300C0032F006D
:100AE000CB032D00D6032B00E1032800EC032B00E1
:100AF000F7032D0002042B000D04280018042B001E
:100B000023042D002F0426003B04200047042F005F
:100B100053043E005F044E006B045D0075045F00EB
:100B20007F04630089046700930469009E046600E3
:100B3000A9046200B4046600BF046900CA04660028
:100B4000D5046200E0046600EB046900F604660068
:100B5000010562000C05660017056900240569009F
:100B6000310569003D0569004805690054056900C3
:100B7000600569006B0569007705690000001400D5
:100B80000C0014001800180024001E00300026007D
:100B90003C002E0048003700540040006000480030
:100BA0006C0050007800580084005F0090006400E2
:100BB0009C006600A8006E00B4007600C0007600BD
:100BC000CC006E00D8006600E4006900F0006E0002
:100BD000FC00700008017600140178002001780004
:100BE0002C01760038016E004401640050015A0067
:100BF0005C0150006801460074013C008001340033
:100C00008C01340093012C009A013400A1012C00C6
:100C1000A8013400AF012C00B6013400BD012C0046
:100C2000C4013400CB012C00D2013400D9012C00C6
:100C3000E0013400EC012E00F801260004021E0041
:100C4000100218001C0214002802140034021400C0
:100C5000400214004C0214005802140064021400F4
:100C60007602140082021E008E022A009A023700C9
:100C7000A6024400B2025000BE025C00CA02690033
:100C8000D6027300E2027800EE027800FA027800E1
:100C900006037800120378001E0370002A03640024
:100CA0003603580042034C004E0346005A034600E8
:100CB00066034600720346007E0346008A03500026
:100CC00096035C00A2036900AE037300BA036E00D2
:100CD000C6036400D2035A00DE035000EA03480052
:100CE000F603410002044100100441001E044100CB
:100CF0002C0441003A0441004804410056044100DC
:100D00006404410072044100800441008E044100EB
:100D10009C044100AA044100B8044100C6044100FB
:100D2000D4044100E2044100F604410000007800D0
:100D30000B00780016007800220078002D00780063
:100D400038007800440078004F0078005A0078009E
:100D500065007600700074007B00750086007800E6
:100D6000910077009C007400A7007400B200770027
:100D7000BD007800C8007500D3007400DE00760066
:100D8000E9007800F600780004017800120178008C
:100D90001C01770027017500320171003C016E00D3
:100DA00047016B0052016A005C016B0067016E0035
:100DB000720171007C017500870177009201780053
:100DC0009C017600A6017100B0016A00BB016300BE
:100DD000C5015E00CF015C00DB015700E501630047
:100DE000EF016E00F901790003027B000D027E0025
:100DF00018028200220285002C028600380286003A
:100E000045028600510286005C02910066029C0049
:100E10007002A7008302A7008B029E009402960036
:100E20009C028D00A4028400AF028400BA028400F8
:100E3000C5028400D0027A00E0027A00EF027A0054
:100E4000FA02700009037000180370002703700095
:100E50003603700041036F004B036B0056036600BE
:100E6000610360006B0359007603510081034B005E
:100E70008B03460096034200A1034100AC033F00F0
:100E8000B7033D00C2033F00CD034100D8033F003C
:100E9000E3033D00EE033F00F90341000404410079
:100EA000100441001C0441002704410033044100A8
:100EB0003F044100000078000B0078001600780025
:100EC000220078002D007800380078004400780077
:100ED0004F0078005A0078006500760070007400BA
:100EE0007C00750087007800920077009D007500F7
:100EF000A9007500B4007700BF007800CA00750033
:100F0000D6007400E1007600EC007800F70078006D
:100F1000020178000C0178001701780022017700A7
:100F20002D0175003701720042016E004D016C0009
:100F300057016B0062016C006D016E007701720059
:100F4000820175008D01770097017800A20176007B
:100F5000AC017200B7016B00C2016500CC016000FA
:100F6000D7015F00E3015A00EC016400F5016F0056
:100F7000FF01790009027A0014027E001F0282003C
:100F80002902850034028600410286004E02860056
:100F90005B02860063028E006B02960073029D0066
:100FA0007B02A5008F02A50098029D00A00295007B
:100FB000A9028D00B1028400BD028400C802840031
:100FC000D4028400DF027B00EF027B00FE027B0084
:100FD00009037100190371002903710033037100C3
:100FE0003E03710048037100540371005F037100F8
:100FF0006B03710077037100820371008E0371002F
:10100000000078000B0078001600780022007800BD
:101010002D00780038007800440078004F007800F8
:101020005A007800650077006F0075007A0075003F
:10103000850077008F0078009A007600A500740084
:10104000AF007600BA007800C5007700CF007500C9
:10105000DA007500E5007700EF007800FB0078000B
:1010600006017800120178001D0178002801770040
:10107000320175003D01720048016F0052016D00A0
:101080005D016C0068016D0072016F007D017200EE
:1010900088017500920177009D017800A801760013
:1010A000B3017200BE016D00C9016700D401630085
:1010B000DE016100EA015C00F7016B0004027900C7
:1010C00010027A001B027E00260282003102850097
:1010D0003C0287004A0287005802870066028700A8
:1010E0006E028E00760295007E029C008602A300AE
:1010F0009C02A300A4029B00AD029400B6028C00E7
:10110000BE028500CA028500D7028500E302850081
:10111000EE028500FA0285000603850011038500B2
:101120001D03850029038500000078000B0078006E
:1011300016007800220078002D0078003800780032
:10114000440078004F0078005A007800650077006E
:10115000710075007C0076008700780093007800AD
:101160009E007600A9007500B4007700C0007800EA
:10117000CC007800D8007800E4007800F000780017
:10118000FA00770005017500100173001A01700064
:1011900025016E0030016D003A016E0045017000BE
:1011A000500173005A0175006501770070017800E5
:1011B0007B0177008601730091016E009D0169003B
:1011C000A8016500B3016400BF015F00CB016C00A2
:1011D000D7017800E3017A00EE017D00FA01820078
:1011E00006028500110287001C0287002702870083
:1011F000320287003D0287004902870054028700BF
:10120000600287006C0287007702870083028700F4
:10121000000078000B0078001600780022007800AB
:101220002D00780038007800440078004F007800E6
:101230005A00780066007700710075007D00760026
:1012400088007800940078009F007600AB0075005D
:10125000B6007700C2007800CE007800DB0078008E
:10126000E8007800F4007800FF00770009017600BC
:10127000140173001F01700029016F0034016E001A
:101280003F016F0049017000540173005F01760057
:101290006901770074017800800178008B01780083
:1012A00097017800A3017800AE017800BA017800B8
:1012B00000000000170000000000000000000019FE
:1012C0000413000000000000000E11110E000502C2
:1012D00005040E04100800040404001000180403A0
:1012E0000E110E121F1019151211150A07041F17DF
:1012F00015090E1509011D030A150A12150E000A1B
:1013000000000000040A110A0A0A110A0401150269
:101310000000001E051E1F150A0E11111F110E1FC1
:1013200015111F05010E111D1F041F111F1108109B
:101330000F1F041B1F10101F061F170E1D0E110E6E
:101340001F05020E19161F051A121509011F011F8C
:10135000101F0718071F0C1F1B041B031C03191564
:10136000130000000000000000000000000000006A
:1013700004000402030302040004FE04FD03FC0253
:10138000FC00FCFEFDFDFEFC00FC02FC03FD04FE77
:1013900000000F000502010706080A070C060E08E8
:1013A0000309070D080F06060002000306010607E1
:1013B0000205020403040405050608090907090AD1
:1013C000080B0B0200000000003E5B4F5B3E3E6BD3
:1013D0004F6B3E1C3E7C3E1C183C7E3C181C577DCF
:1013E000571C1C5E7F5E1C00183C1800FFE7C3E71B
:1013F000FF0018241800FFE7DBE7FF30483A060E2D
:101400002629792926407F050507407F05253F5A73
:101410003CE73C5A7F3E1C1C08081C1C3E7F1422E3
:101420007F22145F5F005F5F06097F017F0066898E
:10143000956A606060606094A2FFA29408047E04D4
:101440000810207E201008082A1C08081C2A0808FA
:101450001E101010100C1E0C1E0C30383E383006BA
:101460000E3E0E06000000000000005F00000007B6
:10147000000700147F147F14242A7F2A12231308E4
:10148000646236495620500008070300001C2241C0
:10149000000041221C002A1C7F1C2A08083E080864
:1014A0000080703000080808080800006060002014
:1014B000100804023E5149453E00427F40007249F7
:1014C0004949462141494D331814127F102745459B
:1014D00045393C4A494931412111090736494949B1
:1014E00036464949291E000014000000403400001F
:1014F0000008142241141414141400412214080288
:10150000015909063E415D594E7C1211127C7F49FA
:101510004949363E414141227F4141413E7F49494F
:1015200049417F090909013E414151737F0808087B
:101530007F00417F41002040413F017F081422414C
:101540007F404040407F021C027F7F0408107F3EA6
:101550004141413E7F090909063E4151215E7F0913
:10156000192946264949493203017F01033F40407A
:10157000403F1F2040201F3F4038403F6314081465
:101580006303047804036159494D43007F4141419D
:101590000204081020004141417F0402010204407E
:1015A00040404040000307080020545478407F2802
:1015B0004444383844444428384444287F385454F8
:1015C000541800087E090218A4A49C787F0804041B
:1015D0007800447D40002040403D007F10284400BA
:1015E00000417F40007C047804787C08040478384B
:1015F00044444438FC1824241818242418FC7C087B
:10160000040408485454542404043F44243C4040F7
:10161000207C1C2040201C3C4030403C44281028AA
:10162000444C9090907C4464544C440008364100F3
:101630000000770000004136080002010204023C6D
:101640002623263C1EA1A161123A4040207A38543C
:1016500054555921555579412154547841215554B7
:10166000784020545579400C1E5272123955555508
:1016700059395454545939555454580000457C41F3
:101680000002457D420001457C40F0292429F0F00C
:10169000282528F07C545545002054547C547C0A5D
:1016A000097F4932494949323248484832324A482A
:1016B00048303A4141217A3A42402078009DA0A02A
:1016C0007D39444444393D4040403D3C24FF24247E
:1016D000487E4943662B2FFC2F2BFF0929F620C09B
:1016E000887E090320545479410000447D413048EC
:1016F000484A32384040227A007A0A0A727D0D192F
:10170000317D2629292F28262929292630484D4090
:1017100020380808080808080808382F10C8ACBA8C
:101720002F102834FA00007B000008142A1422220B
:10173000142A14089500220095AA005500AAAA555B
:10174000AA55AA000000FF00101010FF0014141486
:10175000FF001010FF00FF1010F010F0141414FC24
:10176000001414F700FF0000FF00FF1414F404FC41
:10177000141417101F10101F101F1414141F001022
:101780001010F0000000001F101010101F1010109B
:1017900010F010000000FF101010101010101010AA
:1017A000FF10000000FF140000FF00FF00001F10EA
:1017B000170000FC04F414141710171414F404F4A4
:1017C0000000FF00F714141414141414F700F71495
:1017D0001414171410101F101F141414F4141010E4
:1017E000F010F000001F101F0000001F1400000088
:1017F000FC140000F010F01010FF10FF141414FF80
:10180000141010101F00000000F010FFFFFFFFFF7A
:10181000F0F0F0F0F0FFFFFF0000000000FFFF0F0E
:101820000F0F0F0F38444438447C2A2A3E147E029E
:10183000020606027E027E02635549416338444433
:101840003C04407E201E2006027E020299A5E7A5E8
:10185000991C2A492A1C4C7201724C304A4D4D3059
:101860003048784830BC625A463D3E494949007E7E
:101870000101017E2A2A2A2A2A44445F4444405115
:101880004A444040444A51400000FF0103E080FFC9
:10189000000008086B6B083612362436060F090F55
:1018A00006000018180000001010003040FF010171
:1018B000001F01011E00191D1712003C3C3C3C009A
:1018C00000000000F0F89C8E8783878E9CF8F00063
:1018D00000FEFF0303030303070EFCF80000FEFFF6
:1018E0000303030303070EFCF80000FFFF000000E2
:1018F00000000000FFFF0000FEFF8383838383C797
:10190000EE7C380000F8FC0E07030303070EFCF81A
:1019100000003F7FE0C08080C0E07F3FFFFF01010B
:101920000101010101FFFF0000FFFF0C0C0C0C1C6A
:101930003E77E3C100007FFFC0C0C0C0C0E0703F81
:101940001F00001F3F70E0C0C0C0E0703F1F0000DC
:101950007FFFC1C1C1C1C1E3773E1C00001F3F70C2
:10196000E0C0C0C0E0703F1F000000000001FFFFAA
:1019700001000000D5F08D14A1C881CFD9F1AF20AE
:1019800000FF33330C0C3333005F5F5F5F5F5F5FDB
:101990005F5F5F5F5F5F5F00475241564954592068
:1019A0004445464945440093029600100396007052
:1019B000032C0110039600930296004B022C010B9E
:1019C0000296004B02960093022C014B0296000BEC
:1019D000029600B8012C0193029600100396007045
:1019E000032C0117042C01DC0396007003960010F1
:1019F000032C0193022C0100002C0101800B025AE0
:101A00000093025A0010035A001704040100800BCF
:101A10000246009302460010034600170446009356
:101A2000024600100304010080880150004A015062
:101A3000000601DC0000800B023C0010035A00008D
:101A40008046494E4953482100435241534845443A
:101A500000080B000202020000090400000102025B
:101A600000000524001001052401010104240206E0
:101A70000524060001070581031000400904010048
:101A8000020A000000070502024000000705830269
:101A90004000000403090412010002EF020140416A
:101AA00023368000010102030141726475696E6F83
:101AB000204C4C430041726475626F790000B32082
:101AC00011241FBECFEFDAE0DEBFCDBF13E0A0E0F0
:101AD000B1E0E4E5F3E602C005900D92A631B1074E
:101AE000D9F728E0A6E1B3E001C01D92A831B20702
:101AF000E1F71DE0C0E6DDE004C02197FE010E9491
:101B0000A231CF35D107C9F70E94E0200C94A8314B
:101B10000C94000080913E0308954F925F926F9263
:101B20007F928F929F92AF92BF92CF92DF92EF926D
:101B3000FF920F931F93CF93DF93802E912CF4018C
:101B4000E60FF71F1E161F060CF06EC060347105FD
:101B50000CF06AC030E0E62FE7707E2EF7E08F0EC3
:101B6000911CE3E095948794EA95E1F7F3E075958D
:101B70006795FA95E1F7062E000C770BDB01B69519
:101B8000BA2FAA27B795A795A80FB91FAD57BC4F75
:101B9000EA0150E040E0E0E8F0E07F01E81AF90AED
:101BA0008A01060F171F083011050CF03DC00F3FCA
:101BB0008FEF18077CF190E080E05D01E0E8AE0E69
:101BC000B11CFC01EC0FFD1FE491F0E02F01072C8C
:101BD00002C0440C551C0A94E2F70F3F1007A9F10C
:101BE0006D01C80ED91EF6016080642860827720DE
:101BF00051F00730110539F06501C80ED91EF60104
:101C00006080652860820196821793071CF4E816AD
:101C1000F906B9F64F5F5F4FA058BF4FC20FD31FF1
:101C20008416950609F0BCCFDF91CF911F910F91DB
:101C3000FF90EF90DF90CF90BF90AF909F908F90EC
:101C40007F906F905F904F9008957110D5CFDBCF4C
:101C50009C01480F592F511D4138510514F040E89F
:101C600050E0421BCB018770992791E001C0990F8A
:101C70008A95EAF777FF02C0695F7F4FFB0183E037
:101C8000F595E7958A95E1F7F695FE2FEE27F795FE
:101C9000E795E20FF31FED57FC4F415030F0819173
:101CA000DF011197892B8C93F8CF0895E3E8F3E0D7
:101CB000A0E0B8E000800EBC8111012C1197A0FDBE
:101CC000FDCF0192B9F70DB40895FC018091820314
:101CD000882311F13FB7F89482E08093E9002091C6
:101CE000F200822F90E01816190614F481E090E0BB
:101CF000882339F0289844E6409381034091F1000D
:101D00004083222339F02091F200211103C02BE6F9
:101D10002093E8003FBF08958FEF9FEF08952FB7FE
:101D2000F89483E08093E9009091E800892F807215
:101D300095FF04C09091F20080E4891B2FBF0895A5
:101D40008091790381110DC082E08093750384E056
:101D500080937603109278031092770381E080934A
:101D6000790385E793E00895CF93DF931F92CDB772
:101D7000DEB76983DC01ED91FC910280F381E02DF7
:101D800041E050E0BE016F5F7F4F09950F90DF91FA
:101D9000CF91089583E08093E9008091F200882339
:101DA00019F08AE38093E80008950E948F0E90E076
:101DB0000895CF93DF931F92CDB7DEB7FC018485E2
:101DC000958597FD08C02FEF3FEF358724870F904B
:101DD000DF91CF910895CE0101960E94650E019783
:101DE00019F4898190E0F3CF8FEF9FEFF0CF0F933D
:101DF0001F93CF93DF931F92CDB7DEB78C01FC0109
:101E00008485958597FF0BC0CE0101960E94650ED3
:101E1000019771F4898190E0F80195878487F80132
:101E2000848595850F90DF91CF911F910F91089533
:101E30008FEF9FEFF1CFFC018485958597FD0BC057
:101E40009FB7F89482E08093E9008091F2009FBFF1
:101E500090E0019608959FB7F89482E08093E9009E
:101E60008091F2009FBF90E0089540916F035091E0
:101E7000700320916D0330916E0342175307B4F441
:101E80009091E8009570E1F39091E80092FD19C0FF
:101E90008093F10080916F039091700301968F738E
:101EA0009927892B19F48EEF8093E80080916F03B6
:101EB0009091700301969093700380936F0381E07B
:101EC000089580E00895DF92EF92FF920F931F93A1
:101ED000CF93DF93D82E8A01EB017B01E40EF51E30
:101EE000CE15DF0559F0D7FE12C0FE0184910E9485
:101EF000350F21968111F4CF0FEF1FEFC801DF914D
:101F0000CF911F910F91FF90EF90DF9008958881FE
:101F1000EECF0F931F93CF93DF931F92CDB7DEB712
:101F200082E0898342E450E061E57AE180E80E9442
:101F3000630F0E94A00EDC0112960D911C910115F9
:101F4000110589F0D801ED91FC910280F381E02D1B
:101F5000BE016F5F7F4FC801099597FD04C0F8016E
:101F600000851185ECCF89810F90DF91CF911F9172
:101F70000F910895615030F02091F100FC01208311
:101F80000196F8CF289884E6809381030895FC0198
:101F90000E945E10319728F068517C4F8F4F9F4F01
:101FA000F9CFAB01FC010E945E10641775078E0724
:101FB0009F07C8F308958F929F92AF92BF92CF92DE
:101FC000DF92EF92FF920F931F93CF93DF936C01F9
:101FD0007B018A0180910D01882309F45AC0809108
:101FE0008203882309F455C08091740380FF05C0E3
:101FF0008091E00082608093E000E801B12C8AEFDC
:10200000A82E93E0892E2AE3922E209711F4BB206C
:10201000C9F10E948F0E811108C0AA94AA20C9F1AB
:1020200081E090E00E94C70FF0CF8C171D0611F0E1
:102030000CF08C2F9FB7F8948092E9002091E80073
:1020400025FD02C09FBFE1CF282F30E0C21BD30B7C
:10205000F701815020F041914093F100FACFE20E58
:10206000F31EBB2021F09092E800B12CEBCF8091C1
:10207000E80085FDE7CF9092E800BB24B394209759
:1020800009F3F3CF5D9884E680937303101611066D
:102090003CF081E090E0F6019383828310E000E061
:1020A000C801DF91CF911F910F91FF90EF90DF90CA
:1020B000CF90BF90AF909F908F900895A9E6B3E026
:1020C0002FB7F8947D918D919C9166B52FBFA89BF9
:1020D00005C06F3F18F47F5F8F4F9F4F22E0660F60
:1020E000771F881F991F2A95D1F70895AF92BF9245
:1020F000CF92DF92EF92FF920F931F93CF93DF93D4
:102100006C017B018B01040F151FEB015E01AE1802
:10211000BF08C017D10759F06991D601ED91FC9124
:102120000190F081E02DC6010995892B79F7C50151
:10213000DF91CF911F910F91FF90EF90DF90CF90A3
:10214000BF90AF90089520912F03E0912D03F0915F
:102150002E03CF01029690932E0380932D0322230A
:1021600019F0859194910895808191810895E1E716
:10217000F0E080818D7F808310929100469847988F
:1021800010922A030895CF92DF92EF92FF92CF939D
:10219000DF930E94A310811520E8920741F4DF919C
:1021A000CF91FF90EF90DF90CF900C94B71021E08B
:1021B00020932A03813020E8920751F480912B0369
:1021C00090912C0390932E0380932D030E94A310D3
:1021D00097FD05C020911703222309F45BC02091CD
:1021E0001603211157C021E020931803EC01DF777B
:1021F000209709F052C081E08093190346983FE987
:10220000C32E3FE0D32EE12CF12CCAEFD0E0E091B9
:102210001208F09113080995811103C081E08093A1
:10222000190380911803882329F0809119038823CA
:1022300009F446C047980E94A310009709F444C0CF
:102240009C01DE010E945B31DC01CB0129E0B595E8
:10225000A795979587952A95D1F7109290002AE037
:1022600020939100D0929900C092980080931A0315
:1022700090931B03A0931C03B0931D0380917100E6
:10228000826080937100DF91CF91FF90EF90DF909B
:10229000CF90089510921803A9CF9E0150E040E01E
:1022A00060E472E48FE090E00E94073169017A01F6
:1022B00081E0C81AD108E108F10810921903A7CFEC
:1022C0004699B8CF479AB7CF8FEF9FEFDC01C5CFC4
:1022D0009C01E1E7F0E090819D7F908381E0809315
:1022E0002F0330932E0320932D0330932C03209340
:1022F0002B030C94C31090E00C94C70F8FB1809502
:10230000807F669B88601C9B8460089510923E03CA
:102310003E983F9808953E9A3F9A81E080933E030D
:10232000089590E0E3E8F3E091119FEF8FEF919330
:102330009193919391938150D0F71092270310922B
:1023400026031092290310922803089590914303C5
:10235000982329F490914403982381E009F480E0C4
:102360000895CF93C82F0E947E11982F9C2381E05F
:102370009C1380E0CF91089580E00C94560E803835
:102380009105B8F460347105A0F490E121E061FD9D
:1023900024E060FD220F62FD2295687F969FD001A8
:1023A0001124A80FAD57BC4F0C90022A40FF022603
:1023B0000C9208952F923F924F925F926F927F926C
:1023C0008F929F92AF92BF92CF92DF92EF92FF9245
:1023D0000F931F93CF93DF93EC018B017A01690177
:1023E000C61AD70AD7FE03C0D194C194D1084701B9
:1023F0008C1A9D0A97FE03C09194819491088C14C5
:102400009D0454F49E2D8F2D7901292F382F9C2F58
:102410008D2FE801092F182FEC16FD0654F4902F8C
:10242000812F8901292F382F9C2F8D2FE701E92E2D
:10243000F82E17012C1A3D0A2901401A510A57FE9D
:1024400003C0519441945108310137FE03C08FEF0E
:10245000681A780A759467948FEF021713070CF4C3
:1024600081E0A82E880FBB08EC16FD06A4F041E021
:10247000BE01C8018C149D0414F0B801CE010E9465
:10248000BF116418750877FE04C00A0D1B1D620C8D
:10249000731C2196E9CFDF91CF911F910F91FF908F
:1024A000EF90DF90CF90BF90AF909F908F907F90F4
:1024B0006F905F904F903F902F9008952F923F9292
:1024C0004F925F926F927F928F929F92AF92BF9244
:1024D000CF92DF92EF92FF920F931F93CF93DF93F0
:1024E00000D000D0CDB7DEB77C018B01242F30E0C7
:1024F0003C832B8381E090E05C01A21AB30A1901AE
:10250000319421943108220C331CB901600F711FE2
:1025100041E0C7010E94BF11B8018B819C81681BFB
:10252000790B41E0C7010E94BF1141E0B8018B81E6
:102530009C818E0D9F1D0E94BF1141E0B801C70113
:102540002B813C81821B930B0E94BF11D12CC12C8B
:1025500081E090E09A8389832B813C81C216D30667
:102560000CF05DC0B7FC09C0215031093C832B83BE
:1025700032E0230E311CA20CB31C8FEFC81AD80A0C
:1025800029813A812E5F3F4F3A832983A20EB31EE1
:1025900037016C0C7D1C41E08B809C80800E911E6D
:1025A000B401C3010E94BF1127014C185D0841E02E
:1025B000B401C2010E94BF1141E048018B819C819E
:1025C000881A990AB401C3010E94BF1141E0B40105
:1025D000C2010E94BF114601800E911E41E0B4016C
:1025E0006B807C806E0C7F1CC3010E94BF1141E098
:1025F000B40127012B813C81421A530AC2010E9477
:10260000BF1148018C189D0841E0B401C3010E942C
:10261000BF1141E0B401C2010E94BF119DCF0F90D4
:102620000F900F900F90DF91CF911F910F91FF901E
:10263000EF90DF90CF90BF90AF909F908F907F9062
:102640006F905F904F903F902F9008952F923F9200
:102650004F925F926F927F928F929F92AF92BF92B2
:10266000CF92DF92EF92FF920F931F93CF93DF935E
:1026700000D000D000D01F92CDB7DEB76D30D9F0BA
:10268000309001014090260350902703832D90E065
:102690009F838E836A3051F510922903109228038C
:1026A00023E0880F991F2A95E1F7480E591E509292
:1026B00027034092260381E090E027960FB6F89416
:1026C000DEBF0FBECDBFDF91CF911F910F91FF9065
:1026D000EF90DF90CF90BF90AF909F908F907F90C2
:1026E0006F905F904F903F902F900895A090280397
:1026F000B090290395E0699FB0011124FB01EC53D0
:10270000FC4E3F016501212CF5E02F1629F1C30194
:102710000196F301F491F9833C01420128E02A83F8
:10272000898181708D8310E000E00315D0F4F801F9
:10273000EC0DFD1DFC83EB83F12CE12CE31470F414
:10274000B4016E0D7F1D4D818B819C810E94BF1154
:10275000FFEFEF1AFF0AF2CF1982DFCF0F5F1F4F93
:10276000E4CF2981269529838A8181508A83EE814D
:10277000FF818E0E9F1E8111D3CF2394CE0EDF1EBC
:10278000F6E02F12C1CFC501329C800D911D11249E
:1027900090932903809328038ECF0F931F93CF9399
:1027A000DF938C01D0E0C0E0F801EC0FFD1F6491D5
:1027B000662341F084E198E00E942613892B11F0F2
:1027C0002196F2CFCE01DF91CF911F910F91089505
:1027D000DF92EF92FF920F931F93CF93DF937C01D1
:1027E000D22E8B01040F111DEB0177FF02C0D0E048
:1027F000C0E0C8010134110514F080E490E0C8176E
:10280000D9073CF44D2DBE01C7010E94BF1121968E
:10281000F0CFDF91CF911F910F91FF90EF90DF905C
:102820000895EF92FF920F931F93CF93DF937C0154
:102830008B01C42FD22F0E94280EB8016D0F711D7D
:10284000615071094C2FC7010E94280E21E04D2FC5
:10285000B801C7010E94E813C7018C0F911D21E048
:102860004D2FB8010197DF91CF911F910F91FF90EC
:10287000EF900C94E813FB01EE0FFF1FEE0FFF1F0C
:102880003296E80FF91F859194910895660F771F8E
:10289000660F771FFC01E60FF71F8591949108954D
:1028A000EF92FF920F931F93CF93DF938C01809150
:1028B000B2079091B3079C01215031096217730749
:1028C00018F0BC0162507109EB01209769F0BE015C
:1028D0008091B0079091B1070E944614081719071C
:1028E0001CF42197F2CFE7018091B2079091B307D2
:1028F0000297C817D90770F47E018FEFE81AF80A1B
:10290000B7018091B0079091B1070E944614081753
:1029100019074CF7CE01DF91CF911F910F91FF90D6
:10292000EF9008958F929F92AF92BF92CF92DF92D5
:10293000EF92FF92CF93DF93EC018090160190907D
:102940001701A0901801B09019018091B0079091E3
:10295000B107FC01C590D4900D2C000CEE08FF08C7
:10296000FE2CED2CDC2CCC24C80CD91CEA1CFB1C46
:102970006091B2077091B307615071090E944614CB
:10298000092E000CAA0BBB0BBA2FA92F982F882752
:1029900088199909AA09BB09488159816A817B81F3
:1029A0004C155D056E057F0544F4C882D982EA8224
:1029B000FB82C886D986EA86FB86488159816A816E
:1029C0007B8184179507A607B70744F4888399830A
:1029D000AA83BB8388879987AA87BB87DF91CF911A
:1029E000FF90EF90DF90CF90BF90AF909F908F902F
:1029F0000895EF92FF920F931F93CF938C017B0169
:102A0000C42F4091160150911701609118017091E7
:102A10001901452F562F672F772767FD7A95B70144
:102A2000C8010E945E124C2F50E0440F551FFA015E
:102A3000E059FC4E84914F585C4EFA01449147FD99
:102A40004F5F45959701240F311D47FD3A95E82FBB
:102A500087FDEF5FE595A8014E0F511DE7FD5A95E3
:102A6000B701C8010E94DA1141E0B701C801CF9156
:102A70001F910F91FF90EF900C94BF112F923F92F6
:102A80005F926F927F928F929F92AF92BF92CF92FE
:102A9000DF92EF92FF920F931F93CF93DF93CDB707
:102AA000DEB7E0970FB6F894DEBF0FBECDBF4B0187
:102AB000502E00E913E1DE0111966E0169E1C60EA8
:102AC000D11C16013D01F801E4903196A4900E2C22
:102AD000000CFF080A2C000CBB084E9DB0014F9D56
:102AE000700D5E9D700D11242A9DF0012B9DF00D3F
:102AF0003A9DF00D11246E0F7F1F60587F4F672F96
:102B0000770F770B680F791F6D937D932E9DF001E2
:102B10002F9DF00D3E9DF00D11244A9DB0014B9D5F
:102B2000700D5A9D700D1124E61BF70BE058FF4FF6
:102B3000EF2FFF0FFF0BBF01680D791DF6016193A9
:102B400071936F010E5F1F4FA215B30509F0BBCF44
:102B500008EA13E174ECE72E73E1F72EF801849193
:102B60003196E491F0E090E0EE0FFF1FE60DF71DC7
:102B7000208D318D40815181FC01EE0FFF1FE60D4C
:102B8000F71D608D718D808191810E94DA110E5F39
:102B90001F4FE016F10611F7698D7A8D452D898159
:102BA0009A810E94F9146B8D7C8D452D8B819C81BF
:102BB0000E94F9146DA57EA541E08D899E89E0965D
:102BC0000FB6F894DEBF0FBECDBFDF91CF911F913E
:102BD0000F91FF90EF90DF90CF90BF90AF909F90BC
:102BE0008F907F906F905F903F902F900C945E122B
:102BF0000F931F93CF93DF9300D000D000D0CDB7B9
:102C0000DEB79C01CB01E0E00AE010E041E04E0FAE
:102C100061E070E06C0F7D1F6E0F711DFB01B8014C
:102C20000E947A31805D8083CB01E42F009771F799
:102C3000D901542F552359F0515081E090E08C0F69
:102C40009D1F850F911DFC0180818D93F3CFC901DC
:102C5000840F911D26960FB6F894DEBF0FBECDBF30
:102C6000DF91CF911F910F910895CF93DF939C0136
:102C7000CB016CE370E00E947A31EC01C9010E9443
:102C8000F815FC018EE28083CE0166E070E00E94C0
:102C90007A31605D6183CF010296DF91CF91089513
:102CA0002F923F924F925F926F927F928F929F925C
:102CB000AF92BF92CF92DF92EF92FF920F931F934A
:102CC000CF93DF93CDB7DEB72E970FB6F894DEBF64
:102CD0000FBECDBF7C012B01322EC22ED12C96010E
:102CE000220F331F220F331F3C832B8349835A83C8
:102CF00093E0292EE981FA818191FA83E98388237F
:102D000009F46AC09FE9980F9A3108F4805290EE56
:102D1000980F903408F080E28052829DC001112407
:102D20009C0120553D4E3E832D8357011E861D86F6
:102D3000ED81FE818D859E85E80FF91FE4913201BA
:102D400010E000E02E2F30E038872F83C6018A0D77
:102D50009B1D9A878987ED85FE85EE0DFF1DFC87FB
:102D6000EB878F819885002E02C0959587950A94F0
:102D7000E2F780FF0CC0F1E045013F121EC041E0C8
:102D8000B201600F711F8B859C850E94BF110F5F80
:102D90001F4F6C0C7D1C0530110519F78D859E8524
:102DA00001969E878D87AC0CBD1C039709F0C0CFA0
:102DB000EB81FC81EE0EFF1E9DCF29853A858216A0
:102DC00093062CF721E0432DB301C4010E94E813C0
:102DD0003FEF831A930AF1CF2E960FB6F894DEBF19
:102DE0000FBECDBFDF91CF911F910F91FF90EF905C
:102DF000DF90CF90BF90AF909F908F907F906F901B
:102E00005F904F903F902F900895242F3091610351
:102E100034FF04C042E052E00C945016089521E0C3
:102E20000C945016282FFC018E2F821B919191112A
:102E3000FBCF882341F024E0829FC0011124019739
:102E4000689F802D11240895EF92FF921F93CF93D6
:102E5000DF937C01EB01142F642FCE010E94121727
:102E600020E830E0A901481B5109CA0157FD01962D
:102E7000212FAE01B70195958795DF91CF911F91D5
:102E8000FF90EF900C945016409183075091840767
:102E90006091850770918607452F562F672F7727FA
:102EA00067FD7A954852510957FF02C050E040E053
:102EB000509325034093240340913A0350913B03E0
:102EC0009A012051310960913C0370913D03FB014F
:102ED000FF972E173F07D4F09A01260F371F35951D
:102EE00027952752310981110CC0809122039091BE
:102EF0002303281B390B3595279535952795280FE2
:102F0000391F3093230320932203089540918707AC
:102F1000509188076091890770918A07452F562F35
:102F2000672F772767FD7A95475251094217530754
:102F3000D4F29F014E175F07B4F69A01D4CFCF9316
:102F4000DF93CDB7DEB72C970FB6F894DEBF0FBE78
:102F5000CDBF0E94B710E0915C03E150E93078F4F6
:102F6000F0E0EA54F84E8CE00C94A2316F1872181D
:102F7000751878187B187E188118841887188CE0CB
:102F8000EFE5F1E0DE01119601900D928A95E1F7EF
:102F90008CE0FE013196A2E3B3E001900D928A9598
:102FA000E1F780913203909133039093B1078093BE
:102FB000B00780913403909135039093B3078093C9
:102FC000B2078091380390913903092E000CAA0BA7
:102FD000BB0BBA2FA92F982F882740E054E160E05F
:102FE00070E0409383075093840760938507709344
:102FF00086078093870790938807A0938907B093EB
:103000008A0740938B0750938C0760938D077093CA
:103010008E0780938F0790939007A0939107B093AA
:10302000920740911A0150911B0160911C0170910F
:103030001D015C5E6F4F7F4F409393075093940741
:1030400060939507709396078093970790939807DE
:10305000A0939907B0939A0740939B0750939C07BE
:1030600060939D0770939E0780939F079093A0079E
:10307000A093A107B093A2071092A6071092A507EC
:103080001092A4071092A3071092A7071092A80706
:103090001092A9071092AB071092AA071092AD07E1
:1030A0001092AC071092AF071092AE0710925E0319
:1030B00010925D0310923103109230031092450379
:1030C00081E00E94441784E0809360032C960FB641
:1030D000F894DEBF0FBECDBFDF91CF910895EBE630
:1030E000F1E050CFE7E7F1E04DCFE3E8F1E04ACF80
:1030F000EFE8F1E047CFEBE9F1E044CFE7EAF1E0B8
:1031000041CFE3EBF1E03ECFEFEBF1E03BCFEBEC77
:10311000F1E038CFCF92DF92EF92FF920F931F939F
:103120008B019C0180E090E0A0E0B0E40817190753
:103130002A073B0740F442E0B695A79597958795F7
:103140004A95D1F7F3CF40E050E0BA010097A105CE
:10315000B105F9F06A017B01C80ED91EEA1EFB1EFB
:1031600076956795579547950C151D052E053F05D6
:1031700040F00C191D092E093F09480F591F6A1FFD
:103180007B1FE2E0B695A79597958795EA95D1F7CD
:10319000DDCFCB01BA011F910F91FF90EF90DF902F
:1031A000CF9008952F923F924F925F926F927F92AD
:1031B0008F929F92AF92BF92CF92DF92EF92FF9247
:1031C0000F931F93CF93DF93CDB7DEB76F970FB6F3
:1031D000F894DEBF0FBECDBF1C017A8369835F8B7D
:1031E0004E8B398F288FDB016D917C91FC018081A2
:1031F0009181A281B381892F9A2FAB2FBB27A7FD85
:10320000BA950E945014A981BA818D939C938C0128
:103210008230910510F402E010E002501109FC0127
:103220003296FF8FEE8F8091B2079091B3079C0189
:1032300021503109E217F30720F0215031093F8F67
:103240002E8F1D8A4E8C5F8C4016510608F4C8C123
:10325000B8018091B0079091B1070E944614092EE1
:10326000000CAA0BBB0B6624782E892E9A2E69823D
:103270007A828B829C82B8018091B0079091B107CD
:103280000E943B147C010F5F1F4FB8018091B00773
:103290009091B1070E9446146C01B8018091B0076B
:1032A0009091B1070E943B14D1018D909D90AD90FB
:1032B000BC9013978D829E82AF82B8864090160193
:1032C00050901701609018017090190149865A8634
:1032D0006B867C86B501A401440D551D661D771DC6
:1032E00069807A808B809C80461557056805790532
:1032F0000CF4A8CFA601DD0C660B770B762F652F9B
:10330000542F44278D809E80AF80B88449845A848E
:103310006B847C8484189508A608B708481559055D
:103320006A057B050CF48ECF6701FF0CEE08FF08E1
:10333000FE2CED2CDC2CCC2414966D907D908D9081
:103340009C901797698A7A8A8B8A9C8A2A013B010A
:1033500089809A80AB80BC80481859086A087B082D
:103360004D865E866F86788A092E000CAA0BBB0BF1
:103370008824982EA92EBA2E8C189D08AE08BF0856
:10338000A3019201C301B2010E946A312B013C01E9
:10339000A5019401C501B4010E946A31460E571E71
:1033A000681E791E452C562C672C772467FC7A946E
:1033B00014141504160417040CF069C02D813E8105
:1033C0004F81588589819A81AB81BC81281B390B3B
:1033D0004A0B5B0B6D857E858F8598890E946A31CB
:1033E0006A8F7B8F8C8F9D8F29893A894B895C8965
:1033F0002C193D094E095F09C501B4010E946A31CB
:103400002A8D3B8D4C8D5D8D620F731F841F951F20
:10341000A30192010E94073129013A0131E04316CC
:1034200053066104710424F0412C512C3201539451
:1034300077FE03C0412C512C3201A30192016D850E
:103440007E858F8598890E946A31672F782F892F12
:10345000992787FD9A9529813A814B815C81260FB6
:10346000371F481F591F29833A834B835C83A3016D
:103470009201C501B4010E946A31672F782F892F0C
:10348000992787FD9A95C60ED71EE81EF91E8D80D6
:103490009E80AF80B88449805A806B807C8084187D
:1034A0009508A608B70849885A886B887C884C1804
:1034B0005D086E087F08A5019401C501B4010E9452
:1034C0006A316B017C01A3019201C301B2010E9428
:1034D0006A316C0D7D1D8E1D9F1D0E948A186B0127
:1034E0007C0129853A854B855C85C216D306E406A6
:1034F000F5060CF0A7CE34E0C316D104E104F104C4
:1035000064F4C12CD12C7601D394412C55245A94C7
:10351000652C752C812C912C54019A2D892D782D98
:103520006627A70196010E94073149015A01962D8D
:10353000852D742D6627A70196010E940731290168
:103540003A0189859A85AB85BC858C199D09AE09A0
:10355000BF096C017D01A5019401CD01B6010E9456
:103560006A31672F782F892F992787FD9A952D81AA
:103570003E814F815885620F731F841F951FD101B3
:103580006D937D938D939C931397A3019201C70133
:10359000B6010E946A31672F782F892F992787FDFE
:1035A0009A9529893A894B895C89620F731F841F18
:1035B000951FD10114966D937D938D939C931797CE
:1035C000EE89FF8980829182A282B382A88DB98D13
:1035D0004D925D926D927C921397B1E0BD8B32CE8D
:1035E0008D896F960FB6F894DEBF0FBECDBFDF9109
:1035F000CF911F910F91FF90EF90DF90CF90BF90F0
:10360000AF909F908F907F906F905F904F903F9082
:103610002F9008952F923F924F925F926F927F92D8
:103620008F929F92AF92BF92CF92DF92EF92FF92D2
:103630000F931F93CF93DF93CDB7DEB766970FB687
:10364000F894DEBF0FBECDBF9E8B8D8B788B6F87BE
:103650005E834D831901DA011D921D921D921C9209
:10366000139780E09FEFAFEFBFEFF9018083918365
:10367000A283B383AD89BE892D913D914D915C911B
:1036800013972F83388749875A8714962D913D9138
:103690004D915C9117972B873C874D875E871896D5
:1036A0008D919D910D90BC91A02DCF80D884E984FF
:1036B000FA84C81AD90AEA0AFB0AED89FE898485C8
:1036C0009585A685B78549015A01881A990AAA0ADB
:1036D000BB0AA7019601C701B6010E946A312B01FE
:1036E0003C01A5019401C501B4010E946A31640D39
:1036F000751D861D971D0E948A1820911601309114
:1037000017014091180150911901261737074807F2
:10371000590744F40E94073111E0120F193018F5CF
:10372000113011F591014D815E816F8578898D8908
:103730009E8966960FB6F894DEBF0FBECDBFDF91AF
:10374000CF911F910F91FF90EF90DF90CF90BF909E
:10375000AF909F908F907F906F905F904F903F9031
:103760002F900C94D21818E024013501C982DA8216
:10377000EB82FC8201E0212F30E050E040E0298B19
:103780003A8B4B8B5C8B101708F44AC069817A81A5
:103790008B819C8129893A894B895C890E940731F8
:1037A000ED89FE8980859185A285B385820F931F5F
:1037B000A41FB51F80839183A283B383C301B20189
:1037C00029893A894B895C890E940731ED89FE89F4
:1037D00084859585A685B785820F931FA41FB51F85
:1037E00084839583A683B78391014D815E816F8524
:1037F0007889CF010E94D21829813A814B815C815E
:103800002C0D3D1D4E1D5F1D29833A834B835C8328
:10381000480C591C6A1C7B1C811115C00F5FB3CF6B
:103820008F819885A985BA85ED89FE8980839183EA
:10383000A283B3832B853C854D855E8524833583A8
:103840004683578380E066960FB6F894DEBF0FBEBE
:10385000CDBFDF91CF911F910F91FF90EF90DF903F
:10386000CF90BF90AF909F908F907F906F905F9020
:103870004F903F902F9008954F925F926F927F925A
:103880008F929F92AF92BF92CF92DF92EF92FF9270
:103890000F931F93CF93DF938C01EB0180909307DD
:1038A00090909407A0909507B09096078091830719
:1038B00090918407A0918507B0918607881A990A8C
:1038C000AA0ABB0AC0909707D0909807E090990782
:1038D000F0909A078091870790918807A0918907B7
:1038E000B0918A07C81AD90AEA0AFB0AA50194010D
:1038F000C501B4010E946A312B013C01A701960168
:10390000C701B6010E946A31640D751D861D971DA1
:103910000E948A182B013C0180E148165104610481
:1039200071045CF19A2D892D782D6627A3019201EF
:103930000E940731F80120833183428353839E2DF7
:103940008D2D7C2D6627A30192010E9407312883CB
:1039500039834A835B8381E0DF91CF911F910F917F
:10396000FF90EF90DF90CF90BF90AF909F908F909F
:103970007F906F905F904F90089580E0EDCF089515
:1039800090E080E008958F929F92AF92BF920F9344
:103990001F93CF93DF93CDB7DEB7A1970FB6F894FF
:1039A000DEBF0FBECDBF19A2423008F44AE08E013F
:1039B0000F5D1F4F842E912CB12CA12CA5019401D9
:1039C0000E943931E62FB901CA01EA3044F5E05DC1
:1039D000D801EE938D01232B242B252B79F790E032
:1039E00080E0109769F0FD0101900020E9F7319720
:1039F000AF014A1B5B0BBD0184E198E00E94761089
:103A0000A1960FB6F894DEBF0FBECDBFDF91CF9168
:103A10001F910F91BF90AF909F908F900895E95C98
:103A2000D7CFFF920F931F93CF93DF93EC018B01BE
:103A3000FB01F0800E94DF30F81621F06F2DCE01DF
:103A40000E94F930F801F1802196CE010E94DF300A
:103A5000F81621F06F2DCE010E94F930C801DF91D8
:103A6000CF911F910F91FF9008950F931F93CF93C4
:103A7000DF938C01EB010E94DF308883C80101963F
:103A80000E94DF308983CE01DF91CF911F910F918A
:103A9000089581E0809360032E9A08951F920F92FB
:103AA0000FB60F9211248F939F938091E100909114
:103AB000E100937F9093E10083FF0FC01092E90033
:103AC00091E09093EB001092EC0092E39093ED0064
:103AD0001092820398E09093F00082FF22C093E05E
:103AE0009093E9009091F200992319F09AE3909352
:103AF000E80090917303992341F0909173039150E2
:103B000090937303911101C05D9A90918103992361
:103B100041F090918103915090938103911101C0E4
:103B2000289A84FF18C08091E2008E7E8160809385
:103B3000E2008091E1008F7E8093E1008091740328
:103B40008E7E8061809374039F918F910F900FBE42
:103B50000F901F90189580FFF7CF8091E2008E7E26
:103B600080618093E2008091E1008E7E8093E1008D
:103B7000809174038E7E8160E5CF1F920F920FB605
:103B80000F921124CF92DF92EF92FF920F931F9327
:103B90002F933F934F935F936F937F938F939F9355
:103BA000AF93BF93EF93FF93CF93DF93CDB7DEB780
:103BB0006C97DEBFCDBF1092E9008091E80083FFD3
:103BC00025C068E0CE0145960E94BA0F82EF80932F
:103BD000E8008D8987FF39C09091E80090FFFCCF05
:103BE000982F907609F034C19E894F89588D2F897E
:103BF000F88C911131C0803861F580917203809307
:103C0000F1001092F1008EEF8093E8006C960FB6F1
:103C1000F894DEBF0FBECDBFDF91CF91FF91EF9142
:103C2000BF91AF919F918F917F916F915F914F91D4
:103C30003F912F911F910F91FF90EF90DF90CF90C8
:103C40000F900FBE0F901F9018959EEF9093E80075
:103C5000C7CF1092F100D5CF913059F48111D3CF55
:103C60004130510581F6809172038D7F80937203FC
:103C7000CACF933049F48111C6CF4130510519F6AE
:103C8000809172038260F2CF953041F48091E80018
:103C900080FFFCCF20682093E300B5CF963009F079
:103CA000A9C00B8D1C8D22E01092E90010927003C8
:103CB00010926F03F2122EC010926E0310926D03D9
:103CC0000E94890F1F8299E09983FA8291E09E8376
:103CD00090EA98879AEF998720916F03309170034B
:103CE000275F3F4F3C832B838D831092E900109216
:103CF000700310926F0310936E0300936D0349E0FD
:103D000050E0BE016F5F7F4F80E00E94630F0E9412
:103D1000890F79CF10936E0300936D030E94A00E5C
:103D2000DC0112960D911C910115110509F451C188
:103D3000D801ED91FC910480F581E02DBE016B5E10
:103D40007F4FC8010995009709F03EC1F801008531
:103D50001185EACFF3E0FF120EC08F89882309F4A2
:103D600040C0823061F440E867E085EB9AE10E9450
:103D70008020811148CF81E28093EB0047CF8130D2
:103D800029F440E86BE089EA9AE1F1CF833099F7B2
:103D90000E94A00EDC011296ED90FC908E010F5F48
:103DA0001F4F6801E114F10479F0D701ED91FC9106
:103DB0000680F781E02DB801C7010995080F111D94
:103DC000F701E084F184EECFD8011C92F601019056
:103DD0000020E9F73197BF016C197D0940E0C60169
:103DE000C6CF63E97AE1FB01449150E080E80E948C
:103DF000630F09CF973009F4BECF983021F481E0EA
:103E00008093F10000CF993009F0FDCE837009F066
:103E1000B2CFEEEDF1E081E031E096E32191222393
:103E200071F08093E9003093EB00DF0111972C9142
:103E30002093EC009093ED008F5F873079F78EE749
:103E40008093EA001092EA008F8980938203DBCE90
:103E50008B8D9C8D1092E9001092700310926F036D
:103E600090936E0380936D03898D811192C08E892A
:103E70009D89913A49F4813209F07DCF47E050E0C5
:103E800066E071E080E0B3CF913209F074CF833205
:103E900069F48F89988DB0E0A0E08093020190933F
:103EA0000301A0930401B0930501ADCE803269F403
:103EB0008091E80082FFFCCF67E086E091E00E94FD
:103EC000BA0F8BEF8093E8009ECE823209F09BCE32
:103ED0008F8980930D01EEEFFFE7859194918B3FE1
:103EE0009C4D51F1E0E0F8E08091060190910701CE
:103EF000A0910801B0910901803B9440A105B10552
:103F0000F1F480910D0180FD1AC0EE3F8AE0F807C0
:103F100089F587E797E7918380838091600080939C
:103F2000710388E19BE00FB6F894A8958093600038
:103F30000FBE9093600067CEEEEFFAE0D5CF8081A0
:103F400091818737974709F05ECEA89580916000F0
:103F50008861809360008091710380936000EE3FE0
:103F60002AE0F20789F08091FE0A9091FF0A91837E
:103F7000808349CE808191818737980751F2909351
:103F8000FF0A8093FE0AC5CF1092FF0A1092FE0A24
:103F90003ACE0E94A00EDC0112960D911C910115E3
:103FA000110509F4E8CED801ED91FC910190F08162
:103FB000E02DBE016B5E7F4FC8010995811123CEB4
:103FC000F80100851185EBCF181619060CF41BCEED
:103FD000D2CEF1E0FF12BECE67E97AE104CF0F92B4
:103FE0000FB68F939F93EF93FF93809164038D5F40
:103FF0008D3708F08D5780936403E5E6F3E0808108
:104000008E4F808391819F4F918382818F4F8283D6
:1040100083818F4F8383E9E6F3E080818F5F808324
:1040200081818F4F818382818F4F828383818F4FE4
:1040300083838FB18F6066991C9B88278F3681F4AC
:1040400080916303981B963068F0E0E0F8E087E722
:104050008083818388E180936000F0936000FFCFCC
:1040600090936303FF91EF919F918F910FBE0F90FB
:1040700018951F920F920FB60F9211242F933F9312
:104080004F935F936F937F938F939F93AF93BF9360
:10409000EF93FF9380911A0390911B03A0911C034F
:1040A000B0911D030097A105B10539F120911903C5
:1040B000211105C0369A209118032111379A0197D2
:1040C000A109B109B7FD08C080931A0390931B039F
:1040D000A0931C03B0931D03FF91EF91BF91AF918B
:1040E0009F918F917F916F915F914F913F912F9110
:1040F0000F900FBE0F901F9018950E94C310ECCF29
:10410000EF92FF920F931F93CF93DF93F82E192F07
:10411000E62E042F81E0860F880F0E94350F83E082
:104120000E94350FCF2DD12FEC0EFD2EF11CCE1598
:10413000DF05B9F007FF13C0FE0184910E94350F1F
:10414000182F80E00E94350F812321968111EFCF37
:10415000DF91CF911F910F91FF90EF90089588818B
:10416000EDCF81E0F5CFE4EBF7E01382128288EE29
:1041700093E0A0E0B0E084839583A683B78388EEC4
:1041800091E0918380838FEF9FEF95878487E4E1AF
:10419000F8E0138212828AEF91E0918380838AE8AB
:1041A0009DE0909313088093120880E090E890932C
:1041B00011088093100846983E9A47983F9A0895B0
:1041C000CDB7DEB7CE54D109DEBFCDBF789483E042
:1041D00084BD83E085BD81E080936E00E1E8F0E07E
:1041E00083E08083E0E881E08083E1E983E080830D
:1041F000E0E981E08083E1EC87E08083E3EC81E02B
:104200008083E0EC82E08083E2EC81E08083EAE777
:1042100087E080838068808310928203109272030B
:10422000109274038091D70081608093D70080EA58
:104230008093D80089B5806189BD89B5826089BDC8
:1042400009B400FEFDCF81E090E00E94C70F80918D
:10425000D8008F7C80618093D8008091E000807FBF
:104260008093E0008091E1008E7E8093E1008DE0FC
:104270008093E200559A209A81EC80937C0081EF34
:1042800085B987EE84B984E38BB984EF8AB9769ACD
:104290006E9880EF81BB10BA80E58CBD81E08DBD4A
:1042A00085E00E947B115F9A85E00E947B115C98FB
:1042B000E4E7F9E185918EBD00000DB407FEFDCF66
:1042C000E138C1F75C9A81E88093640081E08093D3
:1042D00065000E94BC1180E80E94B1118823A9F0FA
:1042E0005C9885EA8EBD00000DB407FEFDCF5C9A98
:1042F0002E982F982D98809164008062809364009E
:1043000081E083BF889513BEFCCF84E00E94B11189
:104310008823B9F12D9884E80E94B1118823A1F077
:104320002D9A88EC0E947B112F986FEF82E090E02D
:104330000E94E73084EF91E00E94C70F2F9A84E833
:104340000E94B1118111FBCF84E10E94B111882339
:10435000A1F02D9A88EC0E947B112E9860E082E0FB
:1043600090E00E94E73084EF91E00E94C70F2E9A00
:1043700084E10E94B1118111FBCF88EC0E947B1176
:10438000C4CF2D9A82E090E00E94DF30882309F4A8
:1043900084C00E948B1181E090E00E94DF30182FD2
:1043A000147081FF0EC011112E9861EFE62EFF24CC
:1043B000FA9480E40E94B111882309F471C02E9A06
:1043C0002F9A82E30E947B110E947E118111F9CF06
:1043D00080E18093000180E190E090935B03809303
:1043E0005A031AAA19AABE016F5C7F4F0E94351D9D
:1043F00089A99AA98434974409F0ADC010E000E07F
:10440000B8016A5B7C4F80915A0390915B030296DE
:10441000800F911F0E94351D0E5F1F4F0431110543
:1044200079F78091120190911301A0911401B0913C
:10443000150120E031E040E050E0281B390B4A0B29
:104440005B0BA6E0B0E00E942631660F771F881F45
:10445000991F60932201709323018093240190930C
:10446000250110925C0310924203109240031092B7
:10447000410310923F030E949F17109260038091A6
:104480002003882309F491C01092200380E090E07B
:10449000892BA9F30E940000F2CF0E9486117BCFE6
:1044A000112331F004E0E016F10411F42E9A2F9854
:1044B00081E00E94560E00E128E544EC58E1B70186
:1044C00084E190E00E948D0D0E94BC118FE00E945B
:1044D0007B112FEFE21AF20A39E1E316F10409F039
:1044E00068CF112311F02F9A2D9880E991E00E9456
:1044F000C70F2D9A81E090E00E94DF3080FF61CFEE
:104500008AE090E00E94DF309FEF980F9E3F08F016
:1045100058CF22E330E0309329032093280328E387
:1045200030E030932703209326030AE010E0682F41
:1045300084E198E00E9426130F5F1F4FC8010E947C
:10454000DF300031110599F70E94BC1188EE93E02D
:104550000E94C70F36CF8AE593E0E6E4F3E01192BC
:1045600011928E179F07D9F784E497E49A83898381
:10457000BE016F5F7F4F80915A0390915B030E9451
:10458000111D10E000E0B8016A5B7C4F80915A0376
:1045900090915B030296800F911F0E94111D0E5F88
:1045A0001F4F0431110579F73CCF9091650380913D
:1045B0002103592F581B852F20910001521748F4D1
:1045C0008F5F821708F062CF81E083BF889513BEAA
:1045D0005DCF81E08093200390932103EEE1F3E02F
:1045E000808191810196808391838091440380939F
:1045F00043030E947E118093440380916103909154
:10460000620301969093620380936103809160033B
:104610008130A9F480E80E94B111882381F080E103
:104620000E94B111882359F080915F038F5F8093BE
:104630005F03853B30F0F8940C94252002C0109263
:104640005F0310916003111156C080916103909136
:1046500062038739910570F488E00E94A6118111E8
:1046600009C084E00E94A611811104C080E10E946B
:10467000A61181110E94491D0E94911143E063E23D
:1046800072E084E090E00E94241743E06BE272E065
:1046900085E190E00E9424172CE330E04FE750E0E2
:1046A0006CE370E090E080E00E94DA1110E000E03E
:1046B0002EE330E0A8016DE370E0C8010E94DA113A
:1046C0000C5F1F4F0038110599F702E02BE43FEF14
:1046D00045EB50E068E370E084E690E00E943E1510
:1046E00042E352E062E370E088E090E00E940F173E
:1046F0000E94BC11CBCE123009F46CC4F8F4113016
:1047000009F4B4C380E10E94A611811194C488E029
:104710000E94A6118111D7C3163009F0E0C380E4CE
:104720000E94A611882309F4EBC380915C038930B1
:1047300008F0E6C38F5F80935C03C5C3133009F4B0
:1047400088C41430F9F688E00E94B111382E84E054
:104750000E94B111282E80E20E94B111182F80E42E
:104760000E94B111E82F8091A70781110C94A82C09
:10477000C0908307D0908407E0908507F09086076B
:104780008090120190901301A0901401B090150137
:1047900080918B0790918C07A0918D07B0918E0727
:1047A000A7019601281B390B4A0B5B0BC501B4010D
:1047B0000E946A31272F382F492F552747FD5A95D8
:1047C0002BAB3CAB4DAB5EAB40908707509088075E
:1047D0006090890770908A0780918F079091900769
:1047E000A0919107B0919207A3019201281B390B68
:1047F0004A0B5B0BC501B4010E946A31672F782F09
:10480000892F992787FD9A95C0928B07D0928C07A4
:10481000E0928D07F0928E0740928F07509290079A
:1048200060929107709292072BA93CA94DA95EA9AD
:10483000C20ED31EE41EF51EC0928307D0928407D9
:10484000E0928507F0928607C0900E01D0900F018C
:10485000E0901001F0901101CBAADCAAEDAAFEAA0B
:104860006C0D7D1D8E1D9F1D460E571E681E791EE8
:1048700040928707509288076092890770928A0752
:10488000C0909307D0909407E0909507F09096071A
:1048900080919B0790919C07A0919D07B0919E07E6
:1048A000A7019601281B390B4A0B5B0BC501B4010C
:1048B0000E946A31272F382F492F552747FD5A95D7
:1048C0002FAB38AF49AF5AAF409097075090980739
:1048D0006090990770909A0780919F079091A00728
:1048E000A091A107B091A207A3019201281B390B47
:1048F0004A0B5B0BC501B4010E946A31672F782F08
:10490000892F992787FD9A95C0929B07D0929C0783
:10491000E0929D07F0929E0740929F075092A00759
:104920006092A1077092A2078FA898ACA9ACBAAC0C
:10493000C80CD91CEA1CFB1CC0929307D0929407A8
:10494000E0929507F0929607ABA8BCA8CDA8DEA888
:104950006A0D7B1D8C1D9D1D460E571E681E791EFF
:1049600040929707509298076092990770929A0721
:1049700030E020E01E1731F020E031E0111102C0DC
:1049800020E03FEF8091AE079091AF078217930729
:104990000CF0B2C34091420150914301840F951F26
:1049A000281739070CF4B6C39093AF078093AE076E
:1049B000BE016F5F7F4FCE014B960E943C1C882347
:1049C00009F47AC1E091AE07F091AF07C980DA80AF
:1049D000EB80FC80CBAADCAAEDAAFEAA4B8C5C8CF7
:1049E0006D8C7E8CE0909307F09094070091950772
:1049F00010919607EFAAF8AE09AF1AAF009183079E
:104A00001091840720918507309186070BAF1CAF6A
:104A10002DAF3EAF8090970790909807A090990790
:104A2000B0909A0723968CAE9DAEAEAEBFAE2397E4
:104A3000A0908707B0908807C0908907D0908A0718
:104A40002796ACAEBDAECEAEDFAE27972091460125
:104A5000309147014091480150914901DF010E9486
:104A60003131C72ED82EE92EFF24E7FCFA942F9679
:104A7000CCAEDDAEEEAEFFAE2F9780919B0790914E
:104A80009C07A0919D07B0919E072FA938AD49AD15
:104A90005AAD281B390B4A0B5B0B80918B07909109
:104AA0008C07A0918D07B0918E07EBACFCAC0DADDF
:104AB0001EADE81AF90A0A0B1B0BD801C701281B07
:104AC000390B4A0B5B0B6BA97CA98DA99EA90E948F
:104AD0006A314B015C0180919F079091A007A091E2
:104AE000A107B091A20723962CAD3DAD4EAD5FADB1
:104AF0002397281B390B4A0B5B0B80918F079091F2
:104B00009007A0919107B09192072796CCACDDACAD
:104B1000EEACFFAC2797C81AD90AEA0AFB0A2C198F
:104B20003D094E095F09C301B2010E946A31861A2C
:104B3000970AA80AB90A892C9A2CAB2CBB24A7FC8B
:104B4000BA942F962CAD3DAD4EAD5FAD2F97281981
:104B500039094A095B09EF2B09F4E1C260914A0166
:104B600070914B0180914C0190914D010E946A31EE
:104B7000BB2797FDBA95A92F982F872F0091520137
:104B8000109153012091540130915501CC24DD2422
:104B90007601C01AD10AE20AF30A8C159D05AE050A
:104BA000BF054CF06C017D010C151D052E053F0560
:104BB00014F4680179018091A807882391F060912D
:104BC0005601709157018091580190915901A701A8
:104BD00096010E946A31C72ED82EE92EFF24E7FCE9
:104BE000FA94C114D104E104F10409F465C02BA9BD
:104BF0003CA94DA95EA9C701B6010E946A31872E62
:104C0000982EA92EBB24A7FCBA9422273327A901EA
:104C10002419350946095709C701B6010E946A31AE
:104C2000BB2797FDBA95A92F982F872F0FA918ADED
:104C300029AD3AAD080D191D2A1D3B1D00939307A0
:104C400010939407209395073093960723960CAD05
:104C50001DAD2EAD3FAD2397080F191F2A1F3B1F17
:104C600000939707109398072093990730939A071A
:104C70000BAD1CAD2DAD3EAD081919092A093B0934
:104C8000009383071093840720938507309386074A
:104C90002796ECACFDAC0EAD1FAD2797E81AF90ACC
:104CA0000A0B1B0BD801C7018093870790938807D5
:104CB000A0938907B0938A0700915E0180909307C3
:104CC00090909407A0909507B09096072B968CAE85
:104CD0009DAEAEAEBFAE2B97A0908307B090840779
:104CE000C0908507D0908607ABAABCAACDAADEAA41
:104CF000C0909707D0909807E0909907F0909A0796
:104D0000CFAAD8AEE9AEFAAE809087079090880718
:104D1000A0908907B0908A07C0901A01D0901B011B
:104D2000E0901C01F0901D012796CCAEDDAEEEAEFA
:104D3000FFAE279710E0011709F4FAC12B964CAC8F
:104D40005DAC6EAC7FAC2B97CBA8DCA8EDA8FEA821
:104D50004C185D086E087F08CFA8D8ACE9ACFAAC57
:104D6000C818D908EA08FB08CBAEDCAEEDAEFEAE43
:104D7000A3019201C301B2010E946A316B017C015F
:104D80002BAD3CAD4DAD5EADCA01B9010E946A319B
:104D90006C0D7D1D8E1D9F1D0E948A189B01AC010C
:104DA00020313105410551050CF45EC02796CCAC8D
:104DB000DDACEEACFFAC27976C197D098E099F091D
:104DC000982F872F762F66270E94073169017A0175
:104DD000A3019201C701B6010E946A312B013C0177
:104DE000F9E07594679457944794FA95D1F72BADF1
:104DF0003CAD4DAD5EADC701B6010E946A31DC012C
:104E0000CB0129E0B595A795979587952A95D1F778
:104E1000CBA8DCA8EDA8FEA8C40CD51CE61CF71C8A
:104E2000CBAADCAAEDAAFEAA880E991EAA1EBB1E5A
:104E30002B96CCACDDACEEACFFAC2B97C418D508F0
:104E4000E608F7082B96CCAEDDAEEEAEFFAE2B97A4
:104E5000CFA8D8ACE9ACFAACC81AD90AEA0AFB0A5E
:104E6000CFAAD8AEE9AEFAAE1F5F65CF80E10E944F
:104E7000A611882339F080914203823018F48F5FA5
:104E80008093420380E80E94A611882339F0809124
:104E90004203882319F081508093420388E00E94E6
:104EA000A611882309F180914203882331F08130D3
:104EB00069F010923F0383E010C010925C0387E317
:104EC0009AE10E9468110E949F1709C080915C03BB
:104ED000809341031092400382E0809360038091AD
:104EE00060038150833060F480913E03882341F059
:104EF00080912A03811104C087EA99E10E94681118
:104F000080916003853009F0D9C58091610383FFEA
:104F1000D5C52E980E949111809160039FEF980F44
:104F2000933008F0EBC6813009F0CAC580930101C7
:104F300009E110E0109329030093280383E090E037
:104F4000909327038093260388E999E10E94CD136B
:104F500010932903009328038AE090E0909327039D
:104F60008093260389E899E10E94CD13F7EDCF2EB7
:104F7000F1E0DF2E10E0A8E1EA2EF12CB0E88B2E54
:104F8000912CF601A190B1906F0162E0C5010E94E1
:104F900012173401681A710877FE03C0FFEF6F1A09
:104FA0007F0A7594679422E0A501B701C3010E94AE
:104FB000501680914203811306C042E0B701C3013D
:104FC0000E970E9405171F5F0CE0E00EF11C1330D6
:104FD000C1F68ECB80E10E94A611882339F0809122
:104FE00041038A3018F48F5F8093410380E80E9468
:104FF000A611882339F080914103882319F081504C
:10500000809341031091410380914003181710F4DD
:10501000109340038091400390E0049618171906FE
:1050200029F024F08CEF810F8093400384E00E94EC
:10503000A611882319F00E94491D51CF88E00E94D3
:10504000A611882309F450CF1A30A8F710935C03F7
:1050500036CF80E10E94A611882339F080913F036A
:10506000811103C081E080933F0380E80E94A61174
:10507000882339F080913F03882319F08150809371
:105080003F0380E20E94A61181110EC080E40E94BD
:10509000A611811109C080913F0381111AC088E0D7
:1050A0000E94A6118823A9F080913E03882309F16C
:1050B0000E9486110E94B71010913E0382E090E09A
:1050C0000E94DF30181729F0612F82E090E00E94E3
:1050D000F93084E00E94A6118111ADCF80913F0389
:1050E000813009F0FCCE88E00E94A6118111A3CF87
:1050F000F6CE0E948B11E0CF281739070CF058CC60
:105100004091420150914301841B950B82179307F4
:105110000CF04ACC3093AF072093AE0749CC609196
:105120004E0170914F0180915001909151011ECD1F
:105130002B96ECACFDAC0EAD1FAD2B97E092930718
:10514000F09294070093950710939607CBA8DCA8DC
:10515000EDA8FEA8C0928307D0928407E09285074D
:10516000F0928607EFA8F8AC09AD1AADE092970768
:10517000F09298070093990710939A0780928707F7
:1051800090928807A0928907B0928A079E01295DB4
:105190003F4FAE01455D5F4F63EA77E083E897E0FC
:1051A0000E940A1B182F9E01215E3F4FAE014D5DEC
:1051B0005F4F65EA77E083E997E00E940A1B10934E
:1051C000A8078093A90783E897E00E94921483E9D7
:1051D00097E00E949214112309F41DC18FA098A496
:1051E000A9A4BAA4B094A09490948094811C911C1A
:1051F000A11CB11C0BA51CA52DA53EA50BAB1CAB82
:105200002DAB3EABC0908B07D0908C07E0908D0704
:10521000F0908E07CFAAD8AEE9AEFAAEE0908F0735
:10522000F09090070091910710919207EBAEFCAEC1
:105230000DAF1EAF20918307309184074091850701
:1052400050918607CFA8D8ACE9ACFAAC2C193D092F
:105250004E095F09C501B4010E946A316B017C01EE
:1052600020918707309188074091890750918A07DC
:105270008BAD9CADADADBEAD281B390B4A0B5B0BA6
:105280006BA97CA98DA99EA90E946A31C60ED71E62
:10529000E81EF91ECD2CDE2CEF2CFF24E7FCFA943F
:1052A000332009F427C100912A0110912B0120918C
:1052B0002C0130912D0123960CAF1DAF2EAF3FAFC7
:1052C0002397409022015090230160902401709018
:1052D0002501C016D106E206F30674F520912601D9
:1052E0003091270140912801509129013150410905
:1052F0005109C301B2010E946A31672F782F892FAB
:10530000992787FD9A95460E571E681E791EA7019C
:10531000960157FF03C020E030E0A9010E946A31E6
:1053200023962CAD3DAD4EAD5FAD23970E94073166
:10533000421A530A640A750A60910E0170910F01B6
:105340008091100190911101A50194010E946A3190
:10535000272F382F492F552747FD5A95C12CD12C7F
:105360007601121613061406150684F460912E01B8
:1053700070912F0180913001909131010E946A312A
:10538000C72ED82EE92EFF24E7FCFA944C145D04B6
:105390006E047F0414F473016201A5019401C70136
:1053A000B6010E946A31672F782F892F992787FDD0
:1053B0009A958FA898ACA9ACBAAC861A970AA80A95
:1053C000B90AD501C40180938B0790938C07A093F1
:1053D0008D07B0938E072BA93CA94DA95EA9C701E3
:1053E000B6010E946A31672F782F892F992787FD90
:1053F0009A95ABACBCACCDACDEACA61AB70AC80A69
:10540000D90AD601C50180938F0790939007A09386
:105410009107B0939207BE016F5F7F4FCE014B960D
:105420000E943C1C882309F47DC2C0908307D09061
:105430008407E0908507F090860700918707109118
:1054400088072091890730918A070BAB1CAB2DABE5
:105450003EAB4B8C5C8C6D8C7E8C89809A80AB8053
:10546000BC808FAA98AEA9AEBAAE80918B079091FE
:105470008C07A0918D07B0918E07A7019601281B7C
:10548000390B4A0B5B0BC301B2010E946A314B011D
:105490005C0180918F0790919007A0919107B09146
:1054A00092072BA93CA94DA95EA9281B390B4A0BD1
:1054B0005B0B6FA978AD89AD9AAD0E946A31860EFB
:1054C000971EA81EB91E892C9A2CAB2CBB24A7FCB6
:1054D000BA948091AC079091AD07880E991E00E2B6
:1054E000801609E190060CF489C010E2811A19E1D6
:1054F000910AF5CF222009F478C08091360190916D
:105500003701A0913801B09139018C159D05AE0588
:10551000BF059CF460913201709133018091340198
:1055200090913501A70196010E946A31C72ED82EAD
:10553000E92EFF24E7FCFA941DC080913E01909172
:105540003F01A0914001B0914101B095A095909587
:1055500081959F4FAF4FBF4F8C159D05AE05BF0581
:105560000CF043C0C0903A01D0903B01E0903C0168
:10557000F0903D01A5019401C701B6010E946A3176
:10558000672F782F892F992787FD9A950FA918AD36
:1055900029AD3AAD600F711F821F931F60938B0777
:1055A00070938C0780938D0790938E072BA93CA94D
:1055B0004DA95EA9C701B6010E946A31672F782FF5
:1055C000892F992787FD9A958BAC9CACADACBEAC6E
:1055D000680D791D8A1D9B1D60938F07709390073E
:1055E000809391079093920716CF60911E0170915E
:1055F0001F01809120019091210194CF97FE05C059
:1056000020EE821A26EE920AF9CF9092AD07809290
:10561000AC0780905A0190905B01A0905C01B09023
:105620005D018091930790919407A0919507B091A7
:1056300096078C0D9D1DAE1DBF1D6C017D01F5945F
:10564000E794D794C7942FA938AD49AD5AADC50199
:10565000B4010E946A31672F782F892F992787FD1F
:105660009A9597018601060F171F281F391F0BAF48
:105670001CAF2DAF3EAFC0909707D0909807E09039
:105680009907F0909A070BA91CA92DA93EA9C00E55
:10569000D11EE21EF31EF594E794D794C794A3019C
:1056A0009201C501B4010E946A31672F782F892FBA
:1056B000992787FD9A9546015701861A970AA80AE5
:1056C000B90A23968CAE9DAEAEAEBFAE2397609165
:1056D000A3077091A407ABACBCACCDACDEACBB27D0
:1056E000D7FCBA95AD2D9C2D8B2D0E9450148C01AA
:1056F000BC018091B0079091B1070E944614092E19
:10570000000CAA0BBB0BCC24D82EE92EFA2ECBAA68
:10571000DCAAEDAAFEAAB8018091B0079091B1076A
:105720000E943B14092E000CAA0BBB0B8824982E58
:10573000A92EBA2E8FAA98AEA9AEBAAE0F5F1F4F90
:10574000B8018091B0079091B1070E9446144C01B6
:10575000B8018091B0079091B1070E943B14092CC9
:10576000000CAA08BB08BA2CA92C982C88248C18E9
:105770009D08AE08BF086C01990FEE08FF08FE2CCB
:10578000ED2CDC2CCC240FA918AD29AD3AADC01AF4
:10579000D10AE20AF30AA5019401C501B4010E94ED
:1057A0006A312B013C01A7019601C701B6010E9495
:1057B0006A31460E571E681E791E452C562C672CE2
:1057C000772467FC7A9414141504160417040CF05B
:1057D00075C02BAD3CAD4DAD5EAD8BA99CA9ADA9FF
:1057E000BEA9281B390B4A0B5B0BC501B4010E94F3
:1057F0006A3127966CAF7DAF8EAF9FAF2797239608
:105800002CAD3DAD4EAD5FAD23978FA998ADA9AD41
:10581000BAAD281B390B4A0B5B0BC701B6010E94BE
:105820006A3127960CAD1DAD2EAD3FAD2797600FA9
:10583000711F821F931FA30192010E94073129014A
:105840003A0111E0411651066104710424F0412C23
:10585000512C3201539477FE03C0412C512C32015C
:10586000A3019201C501B4010E946A31672F782F0C
:10587000892F992787FD9A958BA89CA8ADA8BEA8CB
:10588000860E971EA81EB91E8BAA9CAAADAABEAAF8
:10589000C701B6010E946A31672F782F892F992797
:1058A00087FD9A95AFA8B8ACC9ACDAACA60EB71E06
:1058B000C81ED91EAFAAB8AEC9AEDAAE23968CAC5C
:1058C0009DACAEACBFAC2397CFA8D8ACE9ACFAACDA
:1058D0008C189D08AE08BF086BAD7CAD8DAD9EAD3C
:1058E000EBA8FCA80DA91EA96E197F09800B910BCE
:1058F0009B01AC010E946A316B017C01A5019401FE
:10590000C501B4010E946A316C0D7D1D8E1D9F1D65
:105910000E948A1861157240810591051CF481E08E
:105920008093A7078091830790918407A0918507B2
:10593000B0918607892F9A2FAB2FBB27A7FDBA9569
:1059400097FF02C090E080E09093AB078093AA0796
:1059500040915D0350915E034F5F5F4F50935E0334
:1059600040935D038091A707882381F085E08093B1
:10597000600389E29AE10E94681180E10E94A61109
:10598000882309F4ACCA0E94B71055CB80918307D5
:1059900090918407A0918507B0918607892F9A2F4F
:1059A000AB2FBB27A7FDBA95209136033091370363
:1059B00082179307A4F186E08093600320915C0333
:1059C00058AB4FA730E0C901880F991FFC01EA5B73
:1059D000FC4F608171816115710519F046175707F9
:1059E000C8F48A5B9C4FDC014D935C9380915A0311
:1059F00090915B030296220F331FBE01615D7F4FC2
:105A0000820F931F0E94111D81E0809345038FE058
:105A10009AE1B1CF109245038DEF99E1ACCF80911F
:105A20003E03882309F4A9CF80916103909162031A
:105A300083709927892B09F0A0CF311005C0211060
:105A400003C00E94B71099CF2091300330913103E9
:105A5000C901880F991F820F931F8A5B9F4F89305E
:105A6000B2E09B0710F088E092E0311003C09695F9
:105A700087958896209171002D7F20937100109258
:105A80002F0324E038E030932E0320932D0330932E
:105A90002C0320932B0390930508809304088AE538
:105AA00090E0909307088093060880E090E8909338
:105AB0000908809308080E94C3105FCF2E9A2ACA53
:105AC000823009F0AFC041E06CE372E083E090E027
:105AD0000E94241729E030E04BE650E069E070E0D6
